{
  "_format": "hh-sol-artifact-1",
  "contractName": "ChainRunnersBaseRenderer",
  "sourceName": "contracts/ChainRunnersBaseRenderer.sol",
  "abi": [
    {
      "inputs": [],
      "stateMutability": "nonpayable",
      "type": "constructor"
    },
    {
      "anonymous": false,
      "inputs": [
        {
          "indexed": true,
          "internalType": "address",
          "name": "previousOwner",
          "type": "address"
        },
        {
          "indexed": true,
          "internalType": "address",
          "name": "newOwner",
          "type": "address"
        }
      ],
      "name": "OwnershipTransferred",
      "type": "event"
    },
    {
      "inputs": [],
      "name": "NUM_COLORS",
      "outputs": [
        {
          "internalType": "uint256",
          "name": "",
          "type": "uint256"
        }
      ],
      "stateMutability": "view",
      "type": "function"
    },
    {
      "inputs": [],
      "name": "NUM_LAYERS",
      "outputs": [
        {
          "internalType": "uint256",
          "name": "",
          "type": "uint256"
        }
      ],
      "stateMutability": "view",
      "type": "function"
    },
    {
      "inputs": [
        {
          "internalType": "bytes1",
          "name": "b",
          "type": "bytes1"
        }
      ],
      "name": "byteToHexString",
      "outputs": [
        {
          "internalType": "string",
          "name": "",
          "type": "string"
        }
      ],
      "stateMutability": "pure",
      "type": "function"
    },
    {
      "inputs": [
        {
          "internalType": "bytes1",
          "name": "b",
          "type": "bytes1"
        }
      ],
      "name": "byteToUint",
      "outputs": [
        {
          "internalType": "uint256",
          "name": "",
          "type": "uint256"
        }
      ],
      "stateMutability": "pure",
      "type": "function"
    },
    {
      "inputs": [
        {
          "internalType": "uint8",
          "name": "layerIndex",
          "type": "uint8"
        },
        {
          "internalType": "uint8",
          "name": "itemIndex",
          "type": "uint8"
        }
      ],
      "name": "getLayer",
      "outputs": [
        {
          "components": [
            {
              "internalType": "string",
              "name": "name",
              "type": "string"
            },
            {
              "internalType": "bytes",
              "name": "hexString",
              "type": "bytes"
            }
          ],
          "internalType": "struct ChainRunnersBaseRenderer.Layer",
          "name": "",
          "type": "tuple"
        }
      ],
      "stateMutability": "view",
      "type": "function"
    },
    {
      "inputs": [
        {
          "internalType": "uint16",
          "name": "_dna",
          "type": "uint16"
        },
        {
          "internalType": "uint8",
          "name": "_index",
          "type": "uint8"
        },
        {
          "internalType": "uint16",
          "name": "_raceIndex",
          "type": "uint16"
        }
      ],
      "name": "getLayerIndex",
      "outputs": [
        {
          "internalType": "uint256",
          "name": "",
          "type": "uint256"
        }
      ],
      "stateMutability": "view",
      "type": "function"
    },
    {
      "inputs": [
        {
          "internalType": "uint16",
          "name": "_dna",
          "type": "uint16"
        }
      ],
      "name": "getRaceIndex",
      "outputs": [
        {
          "internalType": "uint8",
          "name": "",
          "type": "uint8"
        }
      ],
      "stateMutability": "view",
      "type": "function"
    },
    {
      "inputs": [
        {
          "internalType": "uint256",
          "name": "_dna",
          "type": "uint256"
        }
      ],
      "name": "getTokenData",
      "outputs": [
        {
          "components": [
            {
              "internalType": "string",
              "name": "name",
              "type": "string"
            },
            {
              "internalType": "bytes",
              "name": "hexString",
              "type": "bytes"
            }
          ],
          "internalType": "struct ChainRunnersBaseRenderer.Layer[13]",
          "name": "tokenLayers",
          "type": "tuple[13]"
        },
        {
          "components": [
            {
              "internalType": "string",
              "name": "hexString",
              "type": "string"
            },
            {
              "internalType": "uint256",
              "name": "alpha",
              "type": "uint256"
            },
            {
              "internalType": "uint256",
              "name": "red",
              "type": "uint256"
            },
            {
              "internalType": "uint256",
              "name": "green",
              "type": "uint256"
            },
            {
              "internalType": "uint256",
              "name": "blue",
              "type": "uint256"
            }
          ],
          "internalType": "struct ChainRunnersBaseRenderer.Color[8][13]",
          "name": "tokenPalettes",
          "type": "tuple[8][13]"
        },
        {
          "internalType": "uint8",
          "name": "numTokenLayers",
          "type": "uint8"
        },
        {
          "internalType": "string[13]",
          "name": "traitTypes",
          "type": "string[13]"
        }
      ],
      "stateMutability": "view",
      "type": "function"
    },
    {
      "inputs": [],
      "name": "owner",
      "outputs": [
        {
          "internalType": "address",
          "name": "",
          "type": "address"
        }
      ],
      "stateMutability": "view",
      "type": "function"
    },
    {
      "inputs": [],
      "name": "renounceOwnership",
      "outputs": [],
      "stateMutability": "nonpayable",
      "type": "function"
    },
    {
      "inputs": [
        {
          "components": [
            {
              "internalType": "string",
              "name": "name",
              "type": "string"
            },
            {
              "internalType": "bytes",
              "name": "hexString",
              "type": "bytes"
            },
            {
              "internalType": "uint8",
              "name": "layerIndex",
              "type": "uint8"
            },
            {
              "internalType": "uint8",
              "name": "itemIndex",
              "type": "uint8"
            }
          ],
          "internalType": "struct ChainRunnersBaseRenderer.LayerInput[]",
          "name": "toSet",
          "type": "tuple[]"
        }
      ],
      "name": "setLayers",
      "outputs": [],
      "stateMutability": "nonpayable",
      "type": "function"
    },
    {
      "inputs": [
        {
          "internalType": "uint256",
          "name": "_dna",
          "type": "uint256"
        }
      ],
      "name": "tokenSVG",
      "outputs": [
        {
          "internalType": "string",
          "name": "",
          "type": "string"
        }
      ],
      "stateMutability": "view",
      "type": "function"
    },
    {
      "inputs": [
        {
          "components": [
            {
              "internalType": "string",
              "name": "name",
              "type": "string"
            },
            {
              "internalType": "bytes",
              "name": "hexString",
              "type": "bytes"
            }
          ],
          "internalType": "struct ChainRunnersBaseRenderer.Layer[13]",
          "name": "tokenLayers",
          "type": "tuple[13]"
        },
        {
          "components": [
            {
              "internalType": "string",
              "name": "hexString",
              "type": "string"
            },
            {
              "internalType": "uint256",
              "name": "alpha",
              "type": "uint256"
            },
            {
              "internalType": "uint256",
              "name": "red",
              "type": "uint256"
            },
            {
              "internalType": "uint256",
              "name": "green",
              "type": "uint256"
            },
            {
              "internalType": "uint256",
              "name": "blue",
              "type": "uint256"
            }
          ],
          "internalType": "struct ChainRunnersBaseRenderer.Color[8][13]",
          "name": "tokenPalettes",
          "type": "tuple[8][13]"
        },
        {
          "internalType": "uint8",
          "name": "numTokenLayers",
          "type": "uint8"
        }
      ],
      "name": "tokenSVGBuffer",
      "outputs": [
        {
          "internalType": "string[4]",
          "name": "",
          "type": "string[4]"
        }
      ],
      "stateMutability": "pure",
      "type": "function"
    },
    {
      "inputs": [
        {
          "internalType": "uint256",
          "name": "tokenId",
          "type": "uint256"
        },
        {
          "components": [
            {
              "internalType": "uint256",
              "name": "dna",
              "type": "uint256"
            }
          ],
          "internalType": "struct ChainRunnersTypes.ChainRunner",
          "name": "runnerData",
          "type": "tuple"
        }
      ],
      "name": "tokenURI",
      "outputs": [
        {
          "internalType": "string",
          "name": "",
          "type": "string"
        }
      ],
      "stateMutability": "view",
      "type": "function"
    },
    {
      "inputs": [
        {
          "internalType": "address",
          "name": "newOwner",
          "type": "address"
        }
      ],
      "name": "transferOwnership",
      "outputs": [],
      "stateMutability": "nonpayable",
      "type": "function"
    },
    {
      "inputs": [
        {
          "internalType": "uint8",
          "name": "d",
          "type": "uint8"
        }
      ],
      "name": "uintToHexDigit",
      "outputs": [
        {
          "internalType": "bytes1",
          "name": "",
          "type": "bytes1"
        }
      ],
      "stateMutability": "pure",
      "type": "function"
    },
    {
      "inputs": [
        {
          "internalType": "uint256",
          "name": "a",
          "type": "uint256"
        }
      ],
      "name": "uintToHexString2",
      "outputs": [
        {
          "internalType": "string",
          "name": "",
          "type": "string"
        }
      ],
      "stateMutability": "pure",
      "type": "function"
    },
    {
      "inputs": [
        {
          "internalType": "uint256",
          "name": "a",
          "type": "uint256"
        }
      ],
      "name": "uintToHexString6",
      "outputs": [
        {
          "internalType": "string",
          "name": "",
          "type": "string"
        }
      ],
      "stateMutability": "pure",
      "type": "function"
    }
  ],
  "bytecode": "0x60806040523480156200001157600080fd5b506200001d3362002413565b600180556040805161058081018252602480825260e1602083018190529282018390526060820183905261016860808301819052608760a0840152601b60c0840181905260e0840182905261013b610100850181905261012085018190526101408501819052610160850152610180840185905260b46101a085018190526101c085018690526101e0850181905261020085018390526102208501819052602d6102408601819052610260860184905261028086018490526102a086018490526102c08601929092526102e0850193909352610300840182905261032084018190526103408401839052610360840182905261038084018590526103a084018290526103c084018590526103e084018590526104008401829052610420840183905261044084015261046083015260126104808301526104a082018390526104c082018390526104e0820183905261050082018390526105208201526105408101919091526101696105608201526200019b90600f90602c62002463565b50604080516101e08101825261036b81526104f5602082015261030b918101829052606081018290526080810182905260a0810182905260c0810182905260e08101829052610100810182905261012081018290526101408101829052610160810191909152601161018082015260086101a082015260296101c08201526200022990601090600f62002463565b50604080516104208101825261012f8082526020820181905291810182905260608101829052609760808201819052601e60a08301819052600060c0840181905260e0840152610100830182905261012083018290526101408301829052610160830182905261018083018190526101a083018490526101c083018290526101e08301819052610200830184905261022083018490526102408301849052610260830184905261028083018490526102a083018490526102c08301526102e0820152610300810182905261032081018290526103408101829052610360810182905261038081018290526103a081018290526103c081018290526103e0810191909152610bfa6104008201526200034590601190602162002463565b50604080516101c0810182526102858082526000602083015261050a92820192909252610142606082018190526080820183905260a0820183905260c082018390526103c760e08301819052610100830191909152610120820181905261014082019290925261016081018290526101808101919091526103cd6101a0820152620003d590601290600e62002463565b506040805161016081018252600080825260208201819052918101919091526104e2606082018190526080820181905260a0820181905260c0820181905260e08201819052610100820181905261012082018190526101408201526200044090601390600b62002463565b506040805161094081018252607980825260208201819052918101829052606081018290526080810182905260a0810182905260f360c08201819052600060e08301819052610100830181905261012083018190526101408301819052610160830184905261018083018490526101a083018290526101c083018490526101e08301849052610200830182905261022083018490526102408301849052610260830184905261028083018490526102a083018490526102c083018290526102e08301849052610300830184905261032083018490526103408301849052610360830182905261038083018490526103a083018490526103c083018490526103e08301849052610400830182905261042083018490526104408301849052610460830184905261048083018290526104a083018490526104c083018490526104e08301849052610500830184905261052083018290526105408301849052610560830184905261058083018490526105a083018490526105c083018290526105e08301849052610600830184905261062083018490526106408301849052610660830182905261068083018490526106a083018490526106c083018490526106e08301849052610700830182905261072083018490526107408301849052610760830184905261078083018490526107a083018290526107c083018490526107e0830184905261080083018290526108208301819052610840830181905261086083015261088082018390526108a082018390526108c08201526108e08101829052610900810191909152610132610920820152620006a390601490604a62002463565b50604080516101608101825261039d80825261022b6020830181905260b993830184905260608301526080820181905260a082015260c081019190915261051060e0820181905261010082018190526101208201526107416101408201526200071190601590600b62002463565b50604080516101008101825260588082526020820181905291810182905260608101829052608081019190915261010960a08201526101ba60c082015261229560e08201526200076690601690600862002463565b50604080516101008101825260bd8082526020820152602f918101919091526012606082015260096080820152601c60a0820152602560c082015261250b60e0820152620007b990601790600862002463565b50604080516104a08101825261015480825260208201819052918101829052606081018290526080810182905260a08101829052602260c0820181905260e0820183905261010082018390526101208201839052610140820183905260aa610160830181905261018083018190526101a0830181905260666101c084015260ee6101e08401819052610200840181905261022084018190526101106102408501819052610260850186905261028085018690526102a085018690526102c08501526102e08401819052610300840181905261032084018190526103408401526103608301526103808201526103a081018290526103c0810182905260886103e0820152610400810182905261042081018290526104408101829052610460810191909152610158610480820152620008f690601890602562002463565b506040805161042081018252609f80825260d460208301819052606a938301849052603560608401819052601a608085015260a0840183905260c0840181905261010960e08501819052610100850182905261012085018390526101408501849052610160850181905261018085018290526101a085018190526101c085018190526101e085018390526102008501829052610220850184905260ef6102408601526102608501829052610280850186905260056102a08601526102c085018690526102e08501919091526103008401829052610320840182905261034084019490945261036083019190915261038082018190526103a082018390526103c08201526103e08101919091526113ca61040082015262000a1b90601990602162002463565b506040805161062081018252608b8082526101166020830181905292820183905260fa60608301819052608083015260c260a0830181905260de60c0840181905260e08401859052610100840185905261012084018290526101408401819052605361016085018190526101808501919091526101a084018590526101c084018390526101e08401839052601b610200850181905261022085018690526102408501869052610260850186905261028085018690526102a085018190526102c085018690526102e08501849052610300850186905261032085018690526103408501869052610360850186905261038085018690526103a085018690526103c085018690526103e08501869052610400850186905261042085018690526104408501869052610460850181905261048085018490526104a085018490526104c085018490526104e085019390935260006105008501526105208401859052610540840191909152610560830181905261058083018190526105a08301939093526105c08201929092526105e081019190915261013261060082015262000bc690601a90603162002463565b5060408051610120810182526103d5808252610b81602083015261028e92820183905260106060830152608082015261014760a082015260c081019190915260a360e0820152610ccf61010082015262000c2590601b90600962002463565b506040805161058081018252602480825260e1602083018190529282018390526060820183905261016860808301819052608760a0840152601b60c0840181905260e0840182905261013b610100850181905261012085018190526101408501819052610160850152610180840185905260b46101a085018190526101c085018690526101e0850181905261020085018390526102208501819052602d6102408601819052610260860184905261028086018490526102a086018490526102c08601929092526102e0850193909352610300840182905261032084018190526103408401839052610360840182905261038084018590526103a084018290526103c084018590526103e084018590526104008401829052610420840183905261044084015261046083015260126104808301526104a082018390526104c082018390526104e08201839052610500820183905261052082015261054081019190915261016961056082015262000da090601c90602c62002463565b50604080516101e08101825261036b81526104f5602082015261030b918101829052606081018290526080810182905260a0810182905260c0810182905260e08101829052610100810182905261012081018290526101408101829052610160810191909152601161018082015260086101a082015260296101c082015262000e2e90601d90600f62002463565b506040805161042081018252600080825260208201819052918101829052606081018290526080810182905260a0810182905260c0810182905260e08101829052610100810182905261012081018290526101408101829052610160810182905261018081018290526101a081018290526101c081018290526101e08101829052610200810182905261022081018290526102408101829052610260810182905261028081018290526102a081018290526102c081018290526102e08101829052610300810182905261032081018290526103408101829052610360810182905261038081018290526103a081018290526103c081018290526103e081019190915261271061040082015262000f4990601e90602162002463565b50604080516101c081018252600080825260208201819052918101829052606081018290526080810182905260a0810182905260c0810182905260e08101829052610100810182905261012081018290526101408101829052610160810182905261018081018290526101a081019190915262000fcb90601f90600e62002513565b50604080516101608101825260008082526020808301829052928201819052606082018190526080820181905260a0820181905260c0820181905260e0820181905261010082018190526101208201819052610140820152620010319190600b62002513565b506040805161094081018252600080825260208201819052918101829052606081018290526080810182905260a0810182905260c0810182905260e0810182905261010081018290526101208101829052610140810182905261016081018290526101808082018390526101a082018390526101c082018390526101e08201839052610200820183905261022082018390526102408201839052610260820183905261028082018390526102a082018390526102c082018390526102e08201839052610300820183905261032082018390526103408201839052610360820183905261038082018390526103a082018390526103c082018390526103e08201839052610400820183905261042082018390526104408201839052610460820183905261048082018390526104a082018390526104c082018390526104e08201839052610500820183905261052082018390526105408201839052610560820183905261058082018390526105a082018390526105c082018390526105e08201839052610600820183905261062082018390526106408201839052610660820183905261068082018390526106a082018390526106c082018390526106e08201839052610700820183905261072082018390526107408201839052610760820183905261078082018390526107a082018390526107c082018390526107e082018390526108008201839052610820820152611e0c61084082015261078361086082015261088081018290526108a081018290526108c081018290526108e0810182905261090081019190915260016109208201526200129490602190604a62002463565b506040805161016081018252600080825260208201819052918101829052606081018290526080810182905260a0810182905260c0810182905260e081018290526101008101829052610120810191909152612710610140820152620012ff90602290600b62002463565b506040805161010081018252600080825260208201819052918101829052606081018290526080810182905261038d60a082015260c081019190915261238360e08201526200135390602390600862002463565b506040805161010081018252600080825260208201819052918101829052606081018290526080810182905260a0810182905260c081019190915261271060e0820152620013a690602490600862002463565b50604080516104a08101825261020e808252602082018190529181018290526000606082018190526080820181905260a0820181905260c0820181905260e08201819052610100820183905261012082018190526101408201819052610160820181905261018082018390526101a082018190526101c082018390526101e08201819052610200820181905261022082018190526102408201839052610260820183905261028082018390526102a082018390526102c082018390526102e08201839052610300820183905261032082018390526103408201839052610360820183905261038082018390526103a082018190526103c082018190526103e0820192909252610400810182905261042081018290526104408101829052610460810191909152610214610480820152620014e4906025908162002463565b50604080516104208101825260508082526000602083018190526101909383019390935260f0606083018190526080830182905260a0830184905260c083015260e08201839052610100820183905261012082018190526101408201819052610160820181905261018082018390526101a082018390526101c082018390526101e08201839052610200820181905261022082018190526102408201839052610260820183905261028082018190526102a082018190526102c082018390526102e0820181905261030082018190526103208201819052610340820181905261036082015261038081018290526103a081018290526103c081018290526103e0810191909152611f406104008201526200160390602690602162002463565b506040805161062081018252610121808252600060208301819052928201839052606082018390526080820183905261019460a08301526101ce60c0830181905261024260e0840181905261010084018190526101208401859052610140840182905260ad6101608501526101808401919091526101a083018190526101c083018490526101e083018490526039610200840181905261022084018590526102408401819052610260840185905261028084018190526102a084018190526102c084018290526102e08401839052610300840182905261032084018190526103408401859052610360840181905261038084018190526103a084018190526103c084018290526103e08401829052610400840185905261042084018590526104408401859052610460840185905261048084018590526104a084018590526104c084018190526104e084019290925261050083015261052082018390526105408201839052610560820183905260e76105808301526105a08201526105c081018290526105e08101919091526106d1610600820152620017a890602790603162002463565b5060408051610120810182526102ca80825260208201819052918101829052600060608201819052608082019290925260a0810182905260c0810182905260e0810191909152611be86101008201526200180790602890600962002463565b506040805161058081018252602480825260e1602083018190529282018390526060820183905261016860808301819052608760a0840152601b60c0840181905260e0840182905261013b610100850181905261012085018190526101408501819052610160850152610180840185905260b46101a085018190526101c085018690526101e0850181905261020085018390526102208501819052602d6102408601819052610260860184905261028086018490526102a086018490526102c08601929092526102e0850193909352610300840182905261032084018190526103408401839052610360840182905261038084018590526103a084018290526103c084018590526103e084018590526104008401829052610420840183905261044084015261046083015260126104808301526104a082018390526104c082018390526104e0820183905261050082018390526105208201526105408101919091526101696105608201526200198290602990602c62002463565b50604080516101e08101825261036b81526104f5602082015261030b918101829052606081018290526080810182905260a0810182905260c0810182905260e08101829052610100810182905261012081018290526101408101829052610160810191909152601161018082015260086101a082015260296101c082015262001a1090602a90600f62002463565b50604080516104208101825261012f8082526020820181905291810182905260608101829052609760808201819052601e60a08301819052600060c0840181905260e0840152610100830182905261012083018290526101408301829052610160830182905261018083018190526101a083018490526101c083018290526101e08301819052610200830184905261022083018490526102408301849052610260830184905261028083018490526102a083018490526102c08301526102e0820152610300810182905261032081018290526103408101829052610360810182905261038081018290526103a081018290526103c081018290526103e0810191909152610bfa61040082015262001b2c90602b90602162002463565b50604080516101c0810182526102858082526000602083015261050a92820192909252610142606082018190526080820183905260a0820183905260c082018390526103c760e08301819052610100830191909152610120820181905261014082019290925261016081018290526101808101919091526103cd6101a082015262001bbc90602c90600e62002463565b5060408051610160810182526109c4808252602082018190529181018290526000606082018190526080820181905260a0820181905260c0820181905260e08201819052610100820181905261012082019290925261014081019190915262001c2a90602d90600b62002463565b506040805161094081018252600080825260208201819052918101829052606081018290526080810182905260a0810182905261024c60c0820181905260e08201819052610100820181905261012082018190526101408201819052610160820183905261018082018390526101a082018190526101c082018390526101e08201839052610200820181905261022082018390526102408201839052610260820183905261028082018390526102a082018390526102c082018190526102e08201839052610300820183905261032082018390526103408201839052610360820181905261038082018390526103a082018390526103c082018390526103e08201819052610400820181905261042082018390526104408201839052610460820183905261048082018190526104a082018390526104c082018390526104e08201839052610500820183905261052082018190526105408201839052610560820183905261058082018390526105a082018390526105c082018390526105e08201839052610600820183905261062082018390526106408201839052610660820181905261068082018390526106a082018390526106c082018390526106e08201839052610700820181905261072082018390526107408201839052610760820183905261078082018390526107a082018190526107c082018390526107e08201839052610800820183905261082082018390526108408201839052610860820183905261088082018390526108a082018390526108c08201526108e08101829052610900810191909152600461092082015262001e8d90602e90604a62002463565b50604080516101608101825261039d80825261022b6020830181905260b993830184905260608301526080820181905260a082015260c081019190915261051060e08201819052610100820181905261012082015261074161014082015262001efb90602f90600b62002463565b50604080516101008101825260588082526020820181905291810182905260608101829052608081019190915261010960a08201526101ba60c082015261229560e082015262001f5090603090600862002463565b50604080516101008101825260b7815261011260208201819052918101919091526012606082018190526080820152601b60a0820152602460c08201526123d260e082015262001fa590603190600862002463565b50604080516104a08101825261015480825260208201819052918101829052606081018290526080810182905260a08101829052602260c0820181905260e0820183905261010082018390526101208201839052610140820183905260aa610160830181905261018083018190526101a0830181905260666101c084015260ee6101e08401819052610200840181905261022084018190526101106102408501819052610260850186905261028085018690526102a085018690526102c08501526102e08401819052610300840181905261032084018190526103408401526103608301526103808201526103a081018290526103c0810182905260886103e0820152610400810182905261042081018290526104408101829052610460810191909152610158610480820152620020e290603290602562002463565b50604080516104208101825260d980825261016a6020830181905292820181905260906060830181905260486080840181905261012160a0850181905260c0850183905260e08501869052610100850182905261012085018190526101408501849052610160850186905261018085018290526101a085018690526101c085018690526101e08501819052600061020086018190526102208601859052610240860152610260850182905261028085019290925260076102a08501526102c084018390526102e084015261030083018290526103208301829052610340830181905261036083018290526103808301526103a082018390526103c08201526103e0810191909152610cc56104008201526200220290603390602162002463565b506040805161062081018252608b8082526101166020830181905292820183905260fa60608301819052608083015260c260a0830181905260de60c0840181905260e08401859052610100840185905261012084018290526101408401819052605361016085018190526101808501919091526101a084018590526101c084018390526101e08401839052601b610200850181905261022085018690526102408501869052610260850186905261028085018690526102a085018190526102c085018690526102e08501849052610300850186905261032085018690526103408501869052610360850186905261038085018690526103a085018690526103c085018690526103e08501869052610400850186905261042085018690526104408501869052610460850181905261048085018490526104a085018490526104c085018490526104e085019390935260006105008501526105208401859052610540840191909152610560830181905261058083018190526105a08301939093526105c08201929092526105e0810191909152610132610600820152620023ad90603490603162002463565b5060408051610120810182526103d5808252610b81602083015261028e92820183905260106060830152608082015261014760a082015260c081019190915260a360e0820152610ccf6101008201526200240c90603590600962002463565b5062002595565b600080546001600160a01b038381166001600160a01b0319831681178455604051919092169283917f8be0079c531659141344cd1fd0a4f28419497f9722a3daafe3b4186f6b6457e09190a35050565b82805482825590600052602060002090600f01601090048101928215620025015791602002820160005b83821115620024cf57835183826101000a81548161ffff021916908361ffff16021790555092602001926002016020816001010492830192600103026200248d565b8015620024ff5782816101000a81549061ffff0219169055600201602081600101049283019260010302620024cf565b505b506200250f9291506200257e565b5090565b82805482825590600052602060002090600f01601090048101928215620025015791602002820160005b83821115620024cf57835183826101000a81548161ffff021916908360ff16021790555092602001926002016020816001010492830192600103026200253d565b5b808211156200250f57600081556001016200257f565b614ad180620025a56000396000f3fe608060405234801561001057600080fd5b50600436106101365760003560e01c8063a62f8deb116100b2578063da8343c911610081578063f2fde38b11610066578063f2fde38b146102b4578063fca228ce146102c7578063ffbcaa51146102da57600080fd5b8063da8343c91461028d578063e9703701146102a057600080fd5b8063a62f8deb14610224578063b09afec114610237578063d129beee1461025a578063d68cf31f1461027a57600080fd5b80637249db4d116101095780637f436b5c116100ee5780637f436b5c146101cb5780638da5cb5b146101eb5780639bac5f7a1461021157600080fd5b80637249db4d146101ae5780637e8e0657146101c357600080fd5b80633ef21a5e1461013b5780634489fb2a146101645780637148ede114610184578063715018a6146101a4575b600080fd5b61014e6101493660046138e2565b6102ed565b60405161015b9190614596565b60405180910390f35b6101776101723660046139cf565b610302565b60405161015b91906145f1565b610197610192366004613867565b610486565b60405161015b9190614527565b6101ac611171565b005b6101b6600881565b60405161015b9190614602565b6101b6600d81565b6101de6101d93660046138ff565b6111bd565b60405161015b9190614610565b60005473ffffffffffffffffffffffffffffffffffffffff1660405161015b9190614519565b61014e61021f36600461395d565b6112a6565b61014e61023236600461397a565b61130a565b61024a61024536600461395d565b6114ae565b60405161015b9493929190614538565b61026d6102683660046139b2565b611dc7565b60405161015b9190614588565b61014e61028836600461395d565b611e1c565b6101ac61029b366004613825565b611eae565b6101b66102ae3660046138e2565b60f81c90565b6101ac6102c2366004613808565b612105565b6101b66102d536600461391c565b61217b565b61014e6102e836600461395d565b61231d565b60606102fc6102e88360f81c90565b92915050565b604080518082019091526060808252602082015260028360ff16600d811061033a57634e487b7160e01b600052603260045260246000fd5b0160008360ff16815260200190815260200160002060405180604001604052908160008201805461036a906148d8565b80601f0160208091040260200160405190810160405280929190818152602001828054610396906148d8565b80156103e35780601f106103b8576101008083540402835291602001916103e3565b820191906000526020600020905b8154815290600101906020018083116103c657829003601f168201915b505050505081526020016001820180546103fc906148d8565b80601f0160208091040260200160405190810160405280929190818152602001828054610428906148d8565b80156104755780601f1061044a57610100808354040283529160200191610475565b820191906000526020600020905b81548152906001019060200180831161045857829003601f168201915b505050505081525050905092915050565b61048e613287565b6040805161044081018252600461040082018181527f4d444177000000000000000000000000000000000000000000000000000000006104208401528252825180840184528181527f4d4445770000000000000000000000000000000000000000000000000000000060208281019190915280840191909152835180850185528281527f4d444977000000000000000000000000000000000000000000000000000000008183015283850152835180850185528281527f4d444d770000000000000000000000000000000000000000000000000000000081830152606080850191909152845180860186528381527f4d4451770000000000000000000000000000000000000000000000000000000081840152608080860191909152855180870187528481527f4d445577000000000000000000000000000000000000000000000000000000008185015260a080870191909152865180880188528581527f4d445977000000000000000000000000000000000000000000000000000000008186015260c080880191909152875180890189528681527f4d446377000000000000000000000000000000000000000000000000000000008187015260e0880152875180890189528681527f4d4467770000000000000000000000000000000000000000000000000000000081870152610100880152875180890189528681527f4d446b770000000000000000000000000000000000000000000000000000000081870152610120880152875180890189528681527f4d5441770000000000000000000000000000000000000000000000000000000081870152610140880152875180890189528681527f4d5445770000000000000000000000000000000000000000000000000000000081870152610160880152875180890189528681527f4d5449770000000000000000000000000000000000000000000000000000000081870152610180880152875180890189528681527f4d544d7700000000000000000000000000000000000000000000000000000000818701526101a0880152875180890189528681527f4d54517700000000000000000000000000000000000000000000000000000000818701526101c0880152875180890189528681527f4d54557700000000000000000000000000000000000000000000000000000000818701526101e0880152875180890189528681527f4d5459770000000000000000000000000000000000000000000000000000000081870152610200880152875180890189528681527f4d5463770000000000000000000000000000000000000000000000000000000081870152610220880152875180890189528681527f4d5467770000000000000000000000000000000000000000000000000000000081870152610240880152875180890189528681527f4d546b770000000000000000000000000000000000000000000000000000000081870152610260880152875180890189528681527f4d6a41770000000000000000000000000000000000000000000000000000000081870152610280880152875180890189528681527f4d6a457700000000000000000000000000000000000000000000000000000000818701526102a0880152875180890189528681527f4d6a497700000000000000000000000000000000000000000000000000000000818701526102c0880152875180890189528681527f4d6a4d7700000000000000000000000000000000000000000000000000000000818701526102e0880152875180890189528681527f4d6a51770000000000000000000000000000000000000000000000000000000081870152610300880152875180890189528681527f4d6a55770000000000000000000000000000000000000000000000000000000081870152610320880152875180890189528681527f4d6a59770000000000000000000000000000000000000000000000000000000081870152610340880152875180890189528681527f4d6a63770000000000000000000000000000000000000000000000000000000081870152610360880152875180890189528681527f4d6a67770000000000000000000000000000000000000000000000000000000081870152610380880152875180890189528681527f4d6a6b7700000000000000000000000000000000000000000000000000000000818701526103a0880152875180890189528681527f4d7a417700000000000000000000000000000000000000000000000000000000818701526103c0880152875180890189529586527f4d7a457700000000000000000000000000000000000000000000000000000000868601526103e08701959095528651948501875260008086529385019390935294830181905282810181905293820184905281019290925290610bbd60405180610100016040528060608152602001606081526020016060815260200160608152602001606081526020016060815260200160608152602001606081525090565b610bc56132ae565b610bcd613287565b60008060205b6101a081101561115f57610bee8c8260008e8e60ff166124ac565b6040880152610c048c8260018e60ff8f166124ac565b6060880152610c1a8c8260028e60ff8f166124ac565b6080880152610c308c8260038e60ff8f166124ac565b60a0880152610c3f8888612646565b865286516004908890610c53908390614790565b60ff908116909152610c7091508d9083906004908f908f166124ac565b6040880152610c868c8260058e60ff8f166124ac565b6060880152610c9c8c8260068e60ff8f166124ac565b6080880152610cb28c8260078e60ff8f166124ac565b60a0880152610cc18888612646565b602087015286516004908890610cd8908390614790565b60ff16905250610ce960038261477d565b9050610cfc8c8260008e8e60ff166124ac565b6040880152610d128c8260018e60ff8f166124ac565b6060880152610d288c8260028e60ff8f166124ac565b6080880152610d3e8c8260038e60ff8f166124ac565b60a0880152610d4d8888612646565b604087015286516004908890610d64908390614790565b60ff908116909152610d8191508d9083906004908f908f166124ac565b6040880152610d978c8260058e60ff8f166124ac565b6060880152610dad8c8260068e60ff8f166124ac565b6080880152610dc38c8260078e60ff8f166124ac565b60a0880152610dd28888612646565b606087015286516004908890610de9908390614790565b60ff16905250610dfa60038261477d565b9050610e0d8c8260008e8e60ff166124ac565b6040880152610e238c8260018e60ff8f166124ac565b6060880152610e398c8260028e60ff8f166124ac565b6080880152610e4f8c8260038e60ff8f166124ac565b60a0880152610e5e8888612646565b608087015286516004908890610e75908390614790565b60ff908116909152610e9291508d9083906004908f908f166124ac565b6040880152610ea88c8260058e60ff8f166124ac565b6060880152610ebe8c8260068e60ff8f166124ac565b6080880152610ed48c8260078e60ff8f166124ac565b60a0880152610ee38888612646565b60a087015286516004908890610efa908390614790565b60ff16905250610f0b60038261477d565b9050610f1e8c8260008e8e60ff166124ac565b6040880152610f348c8260018e60ff8f166124ac565b6060880152610f4a8c8260028e60ff8f166124ac565b6080880152610f608c8260038e60ff8f166124ac565b60a0880152610f6f8888612646565b60c087015286516004908890610f86908390614790565b60ff908116909152610fa391508d9083906004908f908f166124ac565b6040880152610fb98c8260058e60ff8f166124ac565b6060880152610fcf8c8260068e60ff8f166124ac565b6080880152610fe58c8260078e60ff8f166124ac565b60a0880152610ff48888612646565b60e08701528651600490889061100b908390614790565b60ff1690525061101c60038261477d565b9050856000015186602001518760400151886060015189608001518a60a001518b60c001518c60e0015160405160200161105d989796959493929190613e88565b60405160208183030381529060405285848061107890614962565b955060ff166008811061109b57634e487b7160e01b600052603260045260246000fd5b602090810291909101919091526000885287018051600191906110bf908390614790565b60ff908116909152600890851610905061115a57845160208087015160408089015160608a015160808b015160a08c015160c08d015160e08e015195516111129998959694959394929391929101613e88565b60405160208183030381529060405284838061112d90614962565b945060ff166004811061115057634e487b7160e01b600052603260045260246000fd5b6020020152600092505b610bd3565b509196505050505050505b9392505050565b60005473ffffffffffffffffffffffffffffffffffffffff1633146111b15760405162461bcd60e51b81526004016111a8906145b7565b60405180910390fd5b6111bb6000612809565b565b6000806000805b60105460ff821610156112a0576010805460ff83169081106111f657634e487b7160e01b600052603260045260246000fd5b90600052602060002090601091828204019190066002029054906101000a900461ffff1691508261ffff168561ffff16101580156112445750611239828461472d565b61ffff168561ffff16105b15611282578060ff166001141561126057506002949350505050565b600b8160ff16111561127757506001949350505050565b506000949350505050565b61128c828461472d565b92508061129881614962565b9150506111c4565b50600080fd5b606060008060006112b6856114ae565b5092509250925060006112ca848484610486565b8051602080830151604080850151606086015191519596506112f09592939092016143c7565b604051602081830303815290604052945050505050919050565b606060008060008061131f86600001516114ae565b9350935093509350606060005b8360ff168160ff1610156114415781825160001461137f576040518060400160405280600481526020017f4c434237000000000000000000000000000000000000000000000000000000008152506113b6565b6040518060400160405280600481526020017f65794167000000000000000000000000000000000000000000000000000000008152505b848360ff16600d81106113d957634e487b7160e01b600052603260045260246000fd5b6020020151888460ff16600d811061140157634e487b7160e01b600052603260045260246000fd5b60200201516000015160405160200161141d9493929190613ef3565b6040516020818303038152906040529150808061143990614962565b91505061132c565b50600061144f868686610486565b805160208201516040830151606084015193945091929091908561147c6114778f600661287e565b612ac2565b6040516020016114919695949392919061413c565b604051602081830303815290604052965050505050505092915050565b6114b66132c9565b6114be613303565b60006114c8613331565b60006114d386612c8b565b905060006114e782600160200201516111bd565b60ff1690506000600f826003811061150f57634e487b7160e01b600052603260045260246000fd5b600d020160070160078154811061153657634e487b7160e01b600052603260045260246000fd5b90600052602060002090601091828204019190066002029054906101000a900461ffff166127106115679190614831565b61ffff16836007602002015161ffff161090506000600f8361ffff16600381106115a157634e487b7160e01b600052603260045260246000fd5b600d02016008016007815481106115c857634e487b7160e01b600052603260045260246000fd5b90600052602060002090601091828204019190066002029054906101000a900461ffff166127106115f99190614831565b61ffff16846008602002015161ffff161090506000600f8461ffff166003811061163357634e487b7160e01b600052603260045260246000fd5b600d020160090160248154811061165a57634e487b7160e01b600052603260045260246000fd5b90600052602060002090601091828204019190066002029054906101000a900461ffff1661271061168b9190614831565b61ffff16856009602002015161ffff161090506000600f8561ffff16600381106116c557634e487b7160e01b600052603260045260246000fd5b600d0201600b016030815481106116ec57634e487b7160e01b600052603260045260246000fd5b90600052602060002090601091828204019190066002029054906101000a900461ffff1661271061171d9190614831565b61ffff1686600b602002015161ffff16109050600080600288826020020151611746919061497b565b61ffff1611905060005b600d8160ff161015611db857600060028260ff16600d811061178257634e487b7160e01b600052603260045260246000fd5b0160006117b78b8560ff16600d81106117ab57634e487b7160e01b600052603260045260246000fd5b6020020151858c61217b565b81526020019081526020016000206040518060400160405290816000820180546117e0906148d8565b80601f016020809104026020016040519081016040528092919081815260200182805461180c906148d8565b80156118595780601f1061182e57610100808354040283529160200191611859565b820191906000526020600020905b81548152906001019060200180831161183c57829003601f168201915b50505050508152602001600182018054611872906148d8565b80601f016020809104026020016040519081016040528092919081815260200182805461189e906148d8565b80156118eb5780601f106118c0576101008083540402835291602001916118eb565b820191906000526020600020905b8154815290600101906020018083116118ce57829003601f168201915b505050505081525050905060008160200151511115611da4578160ff166002148061191957508160ff16600c145b8015611923575085155b801561192d575086155b8061194457508160ff166007148015611944575085155b8061195b57508160ff16600a14801561195b575085155b806119ae575060028260ff161080611984575060028260ff16118015611984575060078260ff16105b8061199257508160ff166008145b806119a057508160ff166009145b806119ae57508160ff16600b145b15611da4578480156119bd5750835b80156119d457508160ff1660091480156119d45750825b806119eb57508160ff16600b1480156119eb575082155b156119f65750611da6565b808d8c60ff16600d8110611a1a57634e487b7160e01b600052603260045260246000fd5b6020020152611a538d60ff8d16600d8110611a4557634e487b7160e01b600052603260045260246000fd5b602002015160200151612cf8565b8c8c60ff16600d8110611a7657634e487b7160e01b600052603260045260246000fd5b60209081029190910191909152604080516101e08101825260106101a082018181527f516d466a61326479623356755a434167000000000000000000000000000000006101c084015282528251808401845260088082527f556d466a5a5341670000000000000000000000000000000000000000000000008287015283860191909152835180850185528181527f526d466a5a5341670000000000000000000000000000000000000000000000008187015283850152835180850185528181527f5457393164476767000000000000000000000000000000000000000000000000818701526060840152835180850185528181527f546d397a5a534167000000000000000000000000000000000000000000000000818701526080840152835180850185528181527f52586c6c637941670000000000000000000000000000000000000000000000008187015260a08401528351808501855260148082527f525746794945466a5932567a63323979655341670000000000000000000000008288015260c0850191909152845180860186528181527f526d466a5a53424259324e6c63334e76636e6b670000000000000000000000008188015260e0850152845180860186529182527f5457467a6179416700000000000000000000000000000000000000000000000082870152610100840191909152835180850185528281527f534756685a4342435a577876647941670000000000000000000000000000000081870152610120840152835180850185528181527f52586c6c4945466a5932567a633239796553416700000000000000000000000081870152610140840152835180850185529182527f534756685a434242596d39325a5341670000000000000000000000000000000082860152610160830191909152825180840190935282527f545739316447676751574e6a5a584e7a62334a350000000000000000000000009282019290925261018082015260ff8316600d8110611d6957634e487b7160e01b600052603260045260246000fd5b60200201518a8c60ff16600d8110611d9157634e487b7160e01b600052603260045260246000fd5b60200201528a611da081614962565b9b50505b505b80611db081614962565b915050611750565b50505050505050509193509193565b600060098260ff1611611de857611ddf826030614790565b60f81b92915050565b8160ff16600a11158015611e005750600f8260ff1611155b1561013657600a611e12836061614790565b611ddf919061485a565b60606000611e298361231d565b9050805160021415611e5d5780604051602001611e469190614510565b604051602081830303815290604052915050919050565b805160031415611e785780604051602001611e469190614110565b805160041415611e935780604051602001611e4691906144e4565b8051600514156102fc5780604051602001611e469190613f5d565b60005473ffffffffffffffffffffffffffffffffffffffff163314611ee55760405162461bcd60e51b81526004016111a8906145b7565b60005b61ffff811682111561210057604051806040016040528084848461ffff16818110611f2357634e487b7160e01b600052603260045260246000fd5b9050602002810190611f359190614687565b611f3f908061461e565b8080601f016020809104026020016040519081016040528093929190818152602001838380828437600092019190915250505090825250602001848461ffff8516818110611f9d57634e487b7160e01b600052603260045260246000fd5b9050602002810190611faf9190614687565b611fbd90602081019061461e565b8080601f01602080910402602001604051908101604052809392919081815260200183838082843760009201919091525050509152506002848461ffff851681811061201957634e487b7160e01b600052603260045260246000fd5b905060200281019061202b9190614687565b61203c9060608101906040016139b2565b60ff16600d811061205d57634e487b7160e01b600052603260045260246000fd5b01600085858561ffff1681811061208457634e487b7160e01b600052603260045260246000fd5b90506020028101906120969190614687565b6120a79060808101906060016139b2565b60ff1681526020808201929092526040016000208251805191926120d09284929091019061334c565b5060208281015180516120e9926001850192019061334c565b5090505080806120f89061492c565b915050611ee8565b505050565b60005473ffffffffffffffffffffffffffffffffffffffff16331461213c5760405162461bcd60e51b81526004016111a8906145b7565b73ffffffffffffffffffffffffffffffffffffffff811661216f5760405162461bcd60e51b81526004016111a8906145a7565b61217881612809565b50565b6000806000805b600f8561ffff16600381106121a757634e487b7160e01b600052603260045260246000fd5b600d02018660ff16600d81106121cd57634e487b7160e01b600052603260045260246000fd5b015460ff821610156122c557600f8561ffff16600381106121fe57634e487b7160e01b600052603260045260246000fd5b600d02018660ff16600d811061222457634e487b7160e01b600052603260045260246000fd5b018160ff168154811061224757634e487b7160e01b600052603260045260246000fd5b90600052602060002090601091828204019190066002029054906101000a900461ffff1691508261ffff168761ffff1610158015612295575061228a828461472d565b61ffff168761ffff16105b156122a75760ff16925061116a915050565b6122b1828461472d565b9250806122bd81614962565b915050612182565b50600f8461ffff16600381106122eb57634e487b7160e01b600052603260045260246000fd5b600d02018560ff16600d811061231157634e487b7160e01b600052603260045260246000fd5b01549695505050505050565b60606000825b801561234957816123338161494e565b925061234290506010826147b1565b9050612323565b60008267ffffffffffffffff81111561237257634e487b7160e01b600052604160045260246000fd5b6040519080825280601f01601f19166020018201604052801561239c576020820181803683370190505b50905060005b83811015612441576123b560108761499b565b92506123c083611dc7565b8260016123cd8488614854565b6123d79190614854565b815181106123f557634e487b7160e01b600052603260045260246000fd5b60200101907effffffffffffffffffffffffffffffffffffffffffffffffffffffffffffff1916908160001a90535061242f6010876147b1565b955061243a8161494e565b90506123a2565b508051819061248857505060408051808201909152600281527f30300000000000000000000000000000000000000000000000000000000000006020820152949350505050565b8051600114156124a357806040516020016112f09190613f5d565b95945050505050565b606060006124bb600184614854565b90505b60008482600d81106124e057634e487b7160e01b600052603260045260246000fd5b60200201516125188984600d811061250857634e487b7160e01b600052603260045260246000fd5b6020020151602001518989612f56565b60ff166008811061253957634e487b7160e01b600052603260045260246000fd5b602002015190508060200151600014156125535750612634565b806020015160ff141561256a575191506124a39050565b6000612577600184614854565b90505b60008682600d811061259c57634e487b7160e01b600052603260045260246000fd5b60200201516125d48b84600d81106125c457634e487b7160e01b600052603260045260246000fd5b6020020151602001518b8b612f56565b60ff16600881106125f557634e487b7160e01b600052603260045260246000fd5b6020020151905060008160200151111561262157612616611477848361319a565b9450505050506124a3565b508061262c816148c1565b91505061257a565b8061263e816148c1565b9150506124be565b6060816040015183836000015160ff166020811061267457634e487b7160e01b600052603260045260246000fd5b602002015184846020015160ff16602081106126a057634e487b7160e01b600052603260045260246000fd5b60200201516060850151855187906126b9906001614790565b60ff16602081106126da57634e487b7160e01b600052603260045260246000fd5b602002015187876020015160ff166020811061270657634e487b7160e01b600052603260045260246000fd5b6020020151608088015188518a9061271f906002614790565b60ff166020811061274057634e487b7160e01b600052603260045260246000fd5b60200201518a8a6020015160ff166020811061276c57634e487b7160e01b600052603260045260246000fd5b602002015160a08b01518b518d90612785906003614790565b60ff16602081106127a657634e487b7160e01b600052603260045260246000fd5b60200201518d8d6020015160ff16602081106127d257634e487b7160e01b600052603260045260246000fd5b60200201516040516020016127f29c9b9a99989796959493929190613f91565b604051602081830303815290604052905092915050565b6000805473ffffffffffffffffffffffffffffffffffffffff8381167fffffffffffffffffffffffff0000000000000000000000000000000000000000831681178455604051919092169283917f8be0079c531659141344cd1fd0a4f28419497f9722a3daafe3b4186f6b6457e09190a35050565b60608260005b81156128aa57806128948161494e565b91506128a39050600a836147b1565b9150612884565b60008467ffffffffffffffff8111156128d357634e487b7160e01b600052604160045260246000fd5b6040519080825280601f01601f1916602001820160405280156128fd576020820181803683370190505b5085935090508561297e577f30000000000000000000000000000000000000000000000000000000000000008160008151811061294a57634e487b7160e01b600052603260045260246000fd5b60200101907effffffffffffffffffffffffffffffffffffffffffffffffffffffffffffff1916908160001a905350600191505b81831115612a0857612991600184614854565b92507f20000000000000000000000000000000000000000000000000000000000000008184815181106129d457634e487b7160e01b600052603260045260246000fd5b60200101907effffffffffffffffffffffffffffffffffffffffffffffffffffffffffffff1916908160001a90535061297e565b815b8615612ab857612a1b600182614854565b90506000612a2a600a896147b1565b612a3590600a6147f2565b612a3f9089614854565b612a4a906030614790565b905060008160f81b905080848481518110612a7557634e487b7160e01b600052603260045260246000fd5b60200101907effffffffffffffffffffffffffffffffffffffffffffffffffffffffffffff1916908160001a905350612aaf600a8a6147b1565b98505050612a0a565b5095945050505050565b805160609080612ae2575050604080516020810190915260008152919050565b60006003612af183600261477d565b612afb91906147b1565b612b069060046147f2565b90506000612b1582602061477d565b67ffffffffffffffff811115612b3b57634e487b7160e01b600052604160045260246000fd5b6040519080825280601f01601f191660200182016040528015612b65576020820181803683370190505b5090506000604051806060016040528060408152602001614a5c604091399050600181016020830160005b86811015612bf1576003818a01810151603f601282901c8116860151600c83901c8216870151600684901c831688015192909316870151600891821b60ff94851601821b92841692909201901b91160160e01b835260049092019101612b90565b506003860660018114612c0b5760028114612c5557612c7d565b7f3d3d0000000000000000000000000000000000000000000000000000000000007ffffffffffffffffffffffffffffffffffffffffffffffffffffffffffffffffe830152612c7d565b7f3d000000000000000000000000000000000000000000000000000000000000006000198301525b505050918152949350505050565b612c936133d0565b60005b600d811015612cf257612cab6127108461499b565b8282600d8110612ccb57634e487b7160e01b600052603260045260246000fd5b61ffff9092166020929092020152600e9290921c9180612cea8161494e565b915050612c96565b50919050565b612d006133ef565b612d086133ef565b60005b60088161ffff161015612f4f57612dd2612d7885612d2a8460046147c5565b61ffff1681518110612d4c57634e487b7160e01b600052603260045260246000fd5b01602001517fff00000000000000000000000000000000000000000000000000000000000000166102ed565b612d9286612d878560046147c5565b612d2a90600161472d565b612dac87612da18660046147c5565b612d2a90600261472d565b604051602001612dbe93929190613e66565b604051602081830303815290604052612ac2565b828261ffff1660088110612df657634e487b7160e01b600052603260045260246000fd5b602002015152612e3884612e0b8360046147c5565b61ffff1681518110612e2d57634e487b7160e01b600052603260045260246000fd5b016020015160f81c90565b828261ffff1660088110612e5c57634e487b7160e01b600052603260045260246000fd5b602002015160400152612e7f84612e748360046147c5565b612e0b90600161472d565b828261ffff1660088110612ea357634e487b7160e01b600052603260045260246000fd5b602002015160600152612ec684612ebb8360046147c5565b612e0b90600261472d565b828261ffff1660088110612eea57634e487b7160e01b600052603260045260246000fd5b602002015160800152612f0d84612f028360046147c5565b612e0b90600361472d565b828261ffff1660088110612f3157634e487b7160e01b600052603260045260246000fd5b60209081029190910151015280612f478161492c565b915050612d0b565b5092915050565b600081612f90576005848481518110612f7f57634e487b7160e01b600052603260045260246000fd5b016020015160f81c901c905061116a565b8160011415612fdb5760086002858581518110612fbd57634e487b7160e01b600052603260045260246000fd5b0160200151612fd4929160f89190911c901c6149a1565b905061116a565b816002141561306c57600784612ff285600161477d565b8151811061301057634e487b7160e01b600052603260045260246000fd5b602001015160f81c60f81b60f81c60ff16901c600485858151811061304557634e487b7160e01b600052603260045260246000fd5b0160200151613057919060f81c6149a1565b61306290600261480c565b612fd49190614790565b81600314156130a357600860048561308586600161477d565b81518110612fbd57634e487b7160e01b600052603260045260246000fd5b81600414156130bb576008600185613085868361477d565b8160051415613143576006846130d285600261477d565b815181106130f057634e487b7160e01b600052603260045260246000fd5b016020015160f81c901c60028561310886600161477d565b8151811061312657634e487b7160e01b600052603260045260246000fd5b0160200151613138919060f81c6149a1565b61306290600461480c565b816006141561315c57600860038561308586600261477d565b60088461316a85600261477d565b8151811061318857634e487b7160e01b600052603260045260246000fd5b0160200151612fd4919060f81c6149a1565b60606000836020015160016131af919061477d565b61ffff169050600084602001516101006131c99190614854565b61ffff1690506124a3601060088660400151846131e691906147f2565b60408901516131f590876147f2565b6131ff919061477d565b901c62ffffff16901b60088087606001518561321b91906147f2565b60608a015161322a90886147f2565b613234919061477d565b901c62ffffff16901b600887608001518561324f91906147f2565b60808a015161325e90886147f2565b613268919061477d565b61327392911c614756565b61327d9190614756565b62ffffff16611e1c565b60405180608001604052806004905b60608152602001906001900390816132965790505090565b60408051610100810190915260608152600760208201613296565b604051806101a00160405280600d905b60408051808201909152606080825260208201528152602001906001900390816132d95790505090565b604051806101a00160405280600d905b61331b6133ef565b8152602001906001900390816133135790505090565b604080516101a0810190915260608152600c60208201613296565b828054613358906148d8565b90600052602060002090601f01602090048101928261337a57600085556133c0565b82601f1061339357805160ff19168380011785556133c0565b828001600101855582156133c0579182015b828111156133c05782518255916020019190600101906133a5565b506133cc929150613447565b5090565b604051806101a00160405280600d906020820280368337509192915050565b6040518061010001604052806008905b6134316040518060a0016040528060608152602001600081526020016000815260200160008152602001600081525090565b8152602001906001900390816133ff5790505090565b5b808211156133cc5760008155600101613448565b600061346f61346a846146e1565b6146c5565b9050808285602086028501111561348557600080fd5b60005b858110156134c957813567ffffffffffffffff8111156134a757600080fd5b85016134b3888261360c565b8452506020928301929190910190600101613488565b5050509392505050565b60006134e161346a846146e1565b905080828560208602850111156134f757600080fd5b60005b858110156134c957813567ffffffffffffffff81111561351957600080fd5b850161352588826136eb565b84525060209283019291909101906001016134fa565b600061354961346a846146e1565b9050808285602086028501111561355f57600080fd5b60005b858110156134c957813567ffffffffffffffff81111561358157600080fd5b850161358d8882613772565b8452506020928301929190910190600101613562565b60006135b161346a84614702565b9050828152602081018484840111156135c957600080fd5b6135d4848285614885565b509392505050565b80356102fc81614a06565b600082601f8301126135f7578081fd5b600d61360484828561345c565b949350505050565b600082601f83011261361c578081fd5b60086136048482856134d3565b60008083601f84011261363a578182fd5b50813567ffffffffffffffff811115613651578182fd5b60208301915083602082028301111561366957600080fd5b9250929050565b600082601f830112613680578081fd5b600d61360484828561353b565b80356102fc81614a1a565b600082601f8301126136a8578081fd5b81356136048482602086016135a3565b6000602082840312156136c9578081fd5b6136d360206146c5565b905060006136e184846137f2565b9082015292915050565b600060a082840312156136fc578081fd5b61370660a06146c5565b9050813567ffffffffffffffff81111561371f57600080fd5b61372b84828501613698565b825250602061373c848483016137f2565b90820152604061374e848483016137f2565b908201526060613760848483016137f2565b9082015260806136e1848483016137f2565b600060408284031215613783578081fd5b61378d60406146c5565b9050813567ffffffffffffffff8111156137a657600080fd5b6137b284828501613698565b825250602082013567ffffffffffffffff8111156137cf57600080fd5b6137db84828501613698565b60208301525092915050565b80356102fc81614a42565b80356102fc81614a4c565b80356102fc81614a52565b600060208284031215613819578081fd5b61116a838284016135dc565b60008060208385031215613837578081fd5b8083013567ffffffffffffffff81111561384f578182fd5b61385b85828601613629565b92509250509250929050565b60008060006060848603121561387b578081fd5b8084013567ffffffffffffffff811115613893578182fd5b61389f86828701613670565b935050602084013567ffffffffffffffff8111156138bb578182fd5b6138c7868287016135e7565b92505060406138d8868287016137fd565b9150509250925092565b6000602082840312156138f3578081fd5b61116a8382840161368d565b600060208284031215613910578081fd5b61116a838284016137e7565b600080600060608486031215613930578081fd5b61393c858286016137e7565b9250602061394c868287016137fd565b92505060406138d8868287016137e7565b60006020828403121561396e578081fd5b61116a838284016137f2565b6000806040838503121561398c578182fd5b613998848385016137f2565b915060206139a8858286016136b8565b9150509250929050565b6000602082840312156139c3578081fd5b61116a838284016137fd565b600080604083850312156139e1578182fd5b6139ed848385016137fd565b915060206139a8858286016137fd565b600061116a8383613b01565b600061116a8383613ba5565b600061116a8383613dbf565b600061116a8383613e25565b613a3681614867565b82525050565b6000600d836101a0810184845b84811015613a7a5783830388528151613a6284826139fd565b93505060208201602098909801979150600101613a49565b50909695505050505050565b6000600d836101a0810184845b84811015613a7a5783830388528151613aac8482613a09565b93505060208201602098909801979150600101613a93565b60006004836080810184845b84811015613a7a5783830388528151613ae98482613a09565b93505060208201602098909801979150600101613ad0565b6000600883610100810184845b84811015613a7a5783830388528151613b278482613a15565b93505060208201602098909801979150600101613b0e565b6000600d836101a0810184845b84811015613a7a5783830388528151613b658482613a21565b93505060208201602098909801979150600101613b4c565b7fff000000000000000000000000000000000000000000000000000000000000008116613a36565b6000613baf825190565b808452602084019350613bc6818560208601614891565b601f01601f19169290920192915050565b6000613be1825190565b613bef818560208601614891565b9290920192915050565b7f496e527959576c3058335235634755694f69416900000000000000000000000081525b60140190565b7f50484a6c593351674943426d615778735053636a0000000000000000000000008152613c1d565b60268152602081017f4f776e61626c653a206e6577206f776e657220697320746865207a65726f206181527f6464726573730000000000000000000000000000000000000000000000000000602082015290505b60400190565b7f4a7941676544306e00000000000000000000000000000000000000000000000081525b60080190565b7f4a7941674943382b0000000000000000000000000000000000000000000000008152613cc9565b7f50484e306557786c506e4a6c5933523764326c6b644767364d5842344f32686c81527f6157646f64446f786348673766547776633352356247552b5043397a646d632b6020820152613c9f565b7f496942390000000000000000000000000000000000000000000000000000000081525b60040190565b7f4a7941676554306e0000000000000000000000000000000000000000000000008152613cc9565b7f30303030000000000000000000000000000000000000000000000000000000008152613d69565b805160a080845260009190840190613dd78282613ba5565b9150506020830151613dec6020860182613e57565b506040830151613dff6040860182613e57565b506060830151613e126060860182613e57565b5060808301516135d46080860182613e57565b8051604080845260009190840190613e3d8282613ba5565b915050602083015184820360208601526124a38282613ba5565b80613a36565b60ff8116613a36565b613e708185613bd7565b9050613e7c8184613bd7565b90506136048183613bd7565b613e92818a613bd7565b9050613e9e8189613bd7565b9050613eaa8188613bd7565b9050613eb68187613bd7565b9050613ec28186613bd7565b9050613ece8185613bd7565b9050613eda8184613bd7565b9050613ee68183613bd7565b9998505050505050505050565b613efd8186613bd7565b9050613f098185613bd7565b9050613f1481613bf9565b9050613f208184613bd7565b7f49697769646d4673645755694f6941690000000000000000000000000000000081526010019050613f528183613bd7565b90506124a381613d45565b7f30000000000000000000000000000000000000000000000000000000000000008152600181015b90506102fc8183613bd7565b613f9a81613c23565b9050613fa6818e613bd7565b9050613fb181613ca5565b9050613fbd818d613bd7565b9050613fc881613d6f565b9050613fd4818c613bd7565b7f4a794176506a78795a574e304943426d615778735053636a000000000000000081526018019050614006818b613bd7565b905061401181613ca5565b905061401d818a613bd7565b905061402881613d6f565b90506140348189613bd7565b7f4a794176506a78795a574e304943426d615778735053636a0000000000000000815260180190506140668188613bd7565b905061407181613ca5565b905061407d8187613bd7565b905061408881613d6f565b90506140948186613bd7565b7f4a794176506a78795a574e304943426d615778735053636a0000000000000000815260180190506140c68185613bd7565b90506140d181613ca5565b90506140dd8184613bd7565b90506140e881613d6f565b90506140f48183613bd7565b90506140ff81613ccf565b9d9c50505050505050505050505050565b7f3030300000000000000000000000000000000000000000000000000000000000815260038101613f85565b7f646174613a6170706c69636174696f6e2f6a736f6e3b6261736536342c65794181527f67496d6c745957646c58325268644745694f69416950484e325a7942325a584a60208201527f7a61573975505363784c6a456e49485a705a586443623367394a7a41674d434160408201527f7a4d6a41674d7a49774a79423462577875637a306e6148523063446f764c336460608201527f33647935334d793576636d63764d6a41774d43397a646d636e49484e6f59584260808201527f6c4c584a6c626d526c636d6c755a7a306e59334a70633342465a47646c63796360a08201527f2b0000000000000000000000000000000000000000000000000000000000000060c082015260c1016142508188613bd7565b905061425c8187613bd7565b90506142688186613bd7565b90506142748185613bd7565b7f50484e306557786c506e4a6c5933523764326c6b644767364d5442776544746f81527f5a576c6e614851364d544277654474395043397a64486c735a5434384c334e3260208201527f5a7a346749697767496d463064484a70596e56305a584d694f694262000000006040820152605c0190506142f28184613bd7565b7f5853776749434169626d46745a534936496c4a31626d356c6369416a000000008152601c0190506143248183613bd7565b7f49697767496d526c63324e796158423061573975496a6f67496b4e6f59576c7581527f49464a31626d356c636e4d6759584a6c4945316c5a32456751326c306553427960208201527f5a57356c5a32466b5a584d674d5441774a53426e5a57356c636d46305a57516760408201527f623234675932686861573475496e3067000000000000000000000000000000006060820152607001979650505050505050565b7f50484e325a7942325a584a7a61573975505363784c6a456e49485a705a58644381527f623367394a7a41674d43417a4d69417a4d69636765473173626e4d394a32683060208201527f644841364c79393364336375647a4d7562334a6e4c7a49774d44417663335a6e60408201527f4a79427a614746775a5331795a57356b5a584a70626d63394a324e7961584e7760608201527f5257526e5a584d6e4947686c6157646f6444306e4d5441774a53636764326c6b60808201527f644767394a7a45774d43556e4943412b0000000000000000000000000000000060a082015260b0016144b58186613bd7565b90506144c18185613bd7565b90506144cd8184613bd7565b90506144d98183613bd7565b90506124a381613cf7565b7f3030000000000000000000000000000000000000000000000000000000000000815260028101613f85565b613f8581613d97565b602081016102fc8284613a2d565b6020808252810161116a8184613ac4565b608080825281016145498187613b3f565b9050818103602083015261455d8186613a3c565b905061456c6040830185613e5d565b818103606083015261457e8184613a86565b9695505050505050565b602081016102fc8284613b7d565b6020808252810161116a8184613ba5565b602080825281016102fc81613c4b565b60208082528181019081527f4f776e61626c653a2063616c6c6572206973206e6f7420746865206f776e65726040830152606082016102fc565b6020808252810161116a8184613e25565b602081016102fc8284613e57565b602081016102fc8284613e5d565b60008083357fffffffffffffffffffffffffffffffffffffffffffffffffffffffffffffffe136859003018112614653578283fd5b8301915050803567ffffffffffffffff81111561466f57600080fd5b60208201915060018102360382131561366957600080fd5b600082357fffffffffffffffffffffffffffffffffffffffffffffffffffffffffffffff81368490030181126146bb578182fd5b9190910192915050565b60006146d060405190565b90506146dc82826148ff565b919050565b600067ffffffffffffffff8211156146fb576146fb6149f0565b5060200290565b600067ffffffffffffffff82111561471c5761471c6149f0565b601f19601f83011660200192915050565b61ffff8116905061ffff8216915060008261ffff03821115614751576147516149ae565b500190565b62ffffff8116905062ffffff8216915060008262ffffff03821115614751576147516149ae565b60008219821115614751576147516149ae565b60ff8116905060ff8216915060008260ff03821115614751576147516149ae565b6000826147c0576147c06149c4565b500490565b61ffff8116905061ffff8216915060008161ffff04831182151516156147ed576147ed6149ae565b500290565b60008160001904831182151516156147ed576147ed6149ae565b60ff8116905060ff8216915060008160ff04831182151516156147ed576147ed6149ae565b61ffff9081169082165b915060008282101561484f5761484f6149ae565b500390565b8161483b565b60ff90811690821661483b565b600073ffffffffffffffffffffffffffffffffffffffff82166102fc565b82818337506000910152565b60005b838110156148ac578181015183820152602001614894565b838111156148bb576000848401525b50505050565b6000816148d0576148d06149ae565b506000190190565b6002810460018216806148ec57607f821691505b60208210811415612cf257612cf26149da565b601f19601f830116810181811067ffffffffffffffff82111715614925576149256149f0565b6040525050565b61ffff81169050600061ffff821415614947576149476149ae565b5060010190565b6000600019821415614947576149476149ae565b60ff81169050600060ff821415614947576149476149ae565b61ffff9081169082165b9150600082614996576149966149c4565b500690565b81614985565b60ff908116908216614985565b634e487b7160e01b600052601160045260246000fd5b634e487b7160e01b600052601260045260246000fd5b634e487b7160e01b600052602260045260246000fd5b634e487b7160e01b600052604160045260246000fd5b614a0f81614867565b811461217857600080fd5b7fff000000000000000000000000000000000000000000000000000000000000008116614a0f565b61ffff8116614a0f565b80614a0f565b60ff8116614a0f56fe4142434445464748494a4b4c4d4e4f505152535455565758595a6162636465666768696a6b6c6d6e6f707172737475767778797a303132333435363738392b2fa2646970667358221220bd4a8d951a3e826973024f372e3a2d3f8a1ffd38ad5c6180ffd5211af30d3f2b64736f6c63430008040033",
  "linkReferences": {},
  "deployedLinkReferences": {}
}