{
  "_format": "hh-sol-artifact-1",
  "contractName": "ChainRunners",
  "sourceName": "contracts/ChainRunners.sol",
  "abi": [
    {
      "inputs": [],
      "stateMutability": "nonpayable",
      "type": "constructor"
    },
    {
      "anonymous": false,
      "inputs": [
        {
          "indexed": true,
          "internalType": "address",
          "name": "owner",
          "type": "address"
        },
        {
          "indexed": true,
          "internalType": "address",
          "name": "approved",
          "type": "address"
        },
        {
          "indexed": true,
          "internalType": "uint256",
          "name": "tokenId",
          "type": "uint256"
        }
      ],
      "name": "Approval",
      "type": "event"
    },
    {
      "anonymous": false,
      "inputs": [
        {
          "indexed": true,
          "internalType": "address",
          "name": "owner",
          "type": "address"
        },
        {
          "indexed": true,
          "internalType": "address",
          "name": "operator",
          "type": "address"
        },
        {
          "indexed": false,
          "internalType": "bool",
          "name": "approved",
          "type": "bool"
        }
      ],
      "name": "ApprovalForAll",
      "type": "event"
    },
    {
      "anonymous": false,
      "inputs": [
        {
          "indexed": true,
          "internalType": "uint256",
          "name": "tokenId",
          "type": "uint256"
        },
        {
          "indexed": false,
          "internalType": "uint256",
          "name": "dna",
          "type": "uint256"
        }
      ],
      "name": "GenerateRunner",
      "type": "event"
    },
    {
      "anonymous": false,
      "inputs": [
        {
          "indexed": true,
          "internalType": "address",
          "name": "previousOwner",
          "type": "address"
        },
        {
          "indexed": true,
          "internalType": "address",
          "name": "newOwner",
          "type": "address"
        }
      ],
      "name": "OwnershipTransferred",
      "type": "event"
    },
    {
      "anonymous": false,
      "inputs": [
        {
          "indexed": true,
          "internalType": "address",
          "name": "from",
          "type": "address"
        },
        {
          "indexed": true,
          "internalType": "address",
          "name": "to",
          "type": "address"
        },
        {
          "indexed": true,
          "internalType": "uint256",
          "name": "tokenId",
          "type": "uint256"
        }
      ],
      "name": "Transfer",
      "type": "event"
    },
    {
      "inputs": [
        {
          "internalType": "address[]",
          "name": "toEarlyAccessList",
          "type": "address[]"
        }
      ],
      "name": "addToEarlyAccessList",
      "outputs": [],
      "stateMutability": "nonpayable",
      "type": "function"
    },
    {
      "inputs": [
        {
          "internalType": "address",
          "name": "_addr",
          "type": "address"
        },
        {
          "internalType": "uint256",
          "name": "_count",
          "type": "uint256"
        }
      ],
      "name": "allocateFounderMint",
      "outputs": [],
      "stateMutability": "nonpayable",
      "type": "function"
    },
    {
      "inputs": [
        {
          "internalType": "address",
          "name": "to",
          "type": "address"
        },
        {
          "internalType": "uint256",
          "name": "tokenId",
          "type": "uint256"
        }
      ],
      "name": "approve",
      "outputs": [],
      "stateMutability": "nonpayable",
      "type": "function"
    },
    {
      "inputs": [
        {
          "internalType": "address",
          "name": "owner",
          "type": "address"
        }
      ],
      "name": "balanceOf",
      "outputs": [
        {
          "internalType": "uint256",
          "name": "",
          "type": "uint256"
        }
      ],
      "stateMutability": "view",
      "type": "function"
    },
    {
      "inputs": [
        {
          "internalType": "string",
          "name": "seed",
          "type": "string"
        }
      ],
      "name": "checkHash",
      "outputs": [
        {
          "internalType": "uint256",
          "name": "",
          "type": "uint256"
        }
      ],
      "stateMutability": "pure",
      "type": "function"
    },
    {
      "inputs": [
        {
          "internalType": "uint256",
          "name": "_runnerZeroHash",
          "type": "uint256"
        },
        {
          "internalType": "uint256",
          "name": "_runnerZeroDNA",
          "type": "uint256"
        }
      ],
      "name": "configureRunnerZero",
      "outputs": [],
      "stateMutability": "nonpayable",
      "type": "function"
    },
    {
      "inputs": [
        {
          "internalType": "address",
          "name": "",
          "type": "address"
        }
      ],
      "name": "earlyAccessMintedCounts",
      "outputs": [
        {
          "internalType": "uint256",
          "name": "",
          "type": "uint256"
        }
      ],
      "stateMutability": "view",
      "type": "function"
    },
    {
      "inputs": [],
      "name": "earlyAccessStartTimestamp",
      "outputs": [
        {
          "internalType": "uint256",
          "name": "",
          "type": "uint256"
        }
      ],
      "stateMutability": "view",
      "type": "function"
    },
    {
      "inputs": [
        {
          "internalType": "uint256",
          "name": "_count",
          "type": "uint256"
        }
      ],
      "name": "founderMint",
      "outputs": [
        {
          "internalType": "uint256",
          "name": "",
          "type": "uint256"
        },
        {
          "internalType": "uint256",
          "name": "",
          "type": "uint256"
        }
      ],
      "stateMutability": "nonpayable",
      "type": "function"
    },
    {
      "inputs": [
        {
          "internalType": "uint256",
          "name": "tokenId",
          "type": "uint256"
        }
      ],
      "name": "getApproved",
      "outputs": [
        {
          "internalType": "address",
          "name": "",
          "type": "address"
        }
      ],
      "stateMutability": "view",
      "type": "function"
    },
    {
      "inputs": [
        {
          "internalType": "uint256",
          "name": "_tokenId",
          "type": "uint256"
        }
      ],
      "name": "getDna",
      "outputs": [
        {
          "internalType": "uint256",
          "name": "",
          "type": "uint256"
        }
      ],
      "stateMutability": "view",
      "type": "function"
    },
    {
      "inputs": [
        {
          "internalType": "address",
          "name": "_addr",
          "type": "address"
        }
      ],
      "name": "getRemainingEarlyAccessMints",
      "outputs": [
        {
          "internalType": "uint256",
          "name": "",
          "type": "uint256"
        }
      ],
      "stateMutability": "view",
      "type": "function"
    },
    {
      "inputs": [
        {
          "internalType": "address",
          "name": "_addr",
          "type": "address"
        }
      ],
      "name": "getRemainingFounderMints",
      "outputs": [
        {
          "internalType": "uint256",
          "name": "",
          "type": "uint256"
        }
      ],
      "stateMutability": "view",
      "type": "function"
    },
    {
      "inputs": [
        {
          "internalType": "address",
          "name": "owner",
          "type": "address"
        },
        {
          "internalType": "address",
          "name": "operator",
          "type": "address"
        }
      ],
      "name": "isApprovedForAll",
      "outputs": [
        {
          "internalType": "bool",
          "name": "",
          "type": "bool"
        }
      ],
      "stateMutability": "view",
      "type": "function"
    },
    {
      "inputs": [],
      "name": "isEarlyAccessOpen",
      "outputs": [
        {
          "internalType": "bool",
          "name": "",
          "type": "bool"
        }
      ],
      "stateMutability": "view",
      "type": "function"
    },
    {
      "inputs": [
        {
          "internalType": "address",
          "name": "",
          "type": "address"
        }
      ],
      "name": "isOnEarlyAccessList",
      "outputs": [
        {
          "internalType": "bool",
          "name": "",
          "type": "bool"
        }
      ],
      "stateMutability": "view",
      "type": "function"
    },
    {
      "inputs": [],
      "name": "isPublicSaleOpen",
      "outputs": [
        {
          "internalType": "bool",
          "name": "",
          "type": "bool"
        }
      ],
      "stateMutability": "view",
      "type": "function"
    },
    {
      "inputs": [
        {
          "internalType": "uint256",
          "name": "_count",
          "type": "uint256"
        }
      ],
      "name": "mintEarlyAccess",
      "outputs": [
        {
          "internalType": "uint256",
          "name": "",
          "type": "uint256"
        },
        {
          "internalType": "uint256",
          "name": "",
          "type": "uint256"
        }
      ],
      "stateMutability": "payable",
      "type": "function"
    },
    {
      "inputs": [
        {
          "internalType": "uint256",
          "name": "_count",
          "type": "uint256"
        }
      ],
      "name": "mintPublicSale",
      "outputs": [
        {
          "internalType": "uint256",
          "name": "",
          "type": "uint256"
        },
        {
          "internalType": "uint256",
          "name": "",
          "type": "uint256"
        }
      ],
      "stateMutability": "payable",
      "type": "function"
    },
    {
      "inputs": [
        {
          "internalType": "string",
          "name": "seed",
          "type": "string"
        }
      ],
      "name": "mintRunnerZero",
      "outputs": [],
      "stateMutability": "nonpayable",
      "type": "function"
    },
    {
      "inputs": [],
      "name": "name",
      "outputs": [
        {
          "internalType": "string",
          "name": "",
          "type": "string"
        }
      ],
      "stateMutability": "view",
      "type": "function"
    },
    {
      "inputs": [],
      "name": "owner",
      "outputs": [
        {
          "internalType": "address",
          "name": "",
          "type": "address"
        }
      ],
      "stateMutability": "view",
      "type": "function"
    },
    {
      "inputs": [
        {
          "internalType": "uint256",
          "name": "tokenId",
          "type": "uint256"
        }
      ],
      "name": "ownerOf",
      "outputs": [
        {
          "internalType": "address",
          "name": "",
          "type": "address"
        }
      ],
      "stateMutability": "view",
      "type": "function"
    },
    {
      "inputs": [],
      "name": "publicSaleStartTimestamp",
      "outputs": [
        {
          "internalType": "uint256",
          "name": "",
          "type": "uint256"
        }
      ],
      "stateMutability": "view",
      "type": "function"
    },
    {
      "inputs": [
        {
          "internalType": "address[]",
          "name": "toRemove",
          "type": "address[]"
        }
      ],
      "name": "removeFromEarlyAccessList",
      "outputs": [],
      "stateMutability": "nonpayable",
      "type": "function"
    },
    {
      "inputs": [],
      "name": "renderingContractAddress",
      "outputs": [
        {
          "internalType": "address",
          "name": "",
          "type": "address"
        }
      ],
      "stateMutability": "view",
      "type": "function"
    },
    {
      "inputs": [],
      "name": "renounceOwnership",
      "outputs": [],
      "stateMutability": "nonpayable",
      "type": "function"
    },
    {
      "inputs": [
        {
          "internalType": "address",
          "name": "from",
          "type": "address"
        },
        {
          "internalType": "address",
          "name": "to",
          "type": "address"
        },
        {
          "internalType": "uint256",
          "name": "tokenId",
          "type": "uint256"
        }
      ],
      "name": "safeTransferFrom",
      "outputs": [],
      "stateMutability": "nonpayable",
      "type": "function"
    },
    {
      "inputs": [
        {
          "internalType": "address",
          "name": "from",
          "type": "address"
        },
        {
          "internalType": "address",
          "name": "to",
          "type": "address"
        },
        {
          "internalType": "uint256",
          "name": "tokenId",
          "type": "uint256"
        },
        {
          "internalType": "bytes",
          "name": "_data",
          "type": "bytes"
        }
      ],
      "name": "safeTransferFrom",
      "outputs": [],
      "stateMutability": "nonpayable",
      "type": "function"
    },
    {
      "inputs": [
        {
          "internalType": "address",
          "name": "operator",
          "type": "address"
        },
        {
          "internalType": "bool",
          "name": "approved",
          "type": "bool"
        }
      ],
      "name": "setApprovalForAll",
      "outputs": [],
      "stateMutability": "nonpayable",
      "type": "function"
    },
    {
      "inputs": [
        {
          "internalType": "uint256",
          "name": "timestamp",
          "type": "uint256"
        }
      ],
      "name": "setEarlyAccessTimestamp",
      "outputs": [],
      "stateMutability": "nonpayable",
      "type": "function"
    },
    {
      "inputs": [
        {
          "internalType": "uint256",
          "name": "timestamp",
          "type": "uint256"
        }
      ],
      "name": "setPublicSaleTimestamp",
      "outputs": [],
      "stateMutability": "nonpayable",
      "type": "function"
    },
    {
      "inputs": [
        {
          "internalType": "address",
          "name": "_renderingContractAddress",
          "type": "address"
        }
      ],
      "name": "setRenderingContractAddress",
      "outputs": [],
      "stateMutability": "nonpayable",
      "type": "function"
    },
    {
      "inputs": [
        {
          "internalType": "bytes4",
          "name": "interfaceId",
          "type": "bytes4"
        }
      ],
      "name": "supportsInterface",
      "outputs": [
        {
          "internalType": "bool",
          "name": "",
          "type": "bool"
        }
      ],
      "stateMutability": "view",
      "type": "function"
    },
    {
      "inputs": [],
      "name": "symbol",
      "outputs": [
        {
          "internalType": "string",
          "name": "",
          "type": "string"
        }
      ],
      "stateMutability": "view",
      "type": "function"
    },
    {
      "inputs": [
        {
          "internalType": "uint256",
          "name": "index",
          "type": "uint256"
        }
      ],
      "name": "tokenByIndex",
      "outputs": [
        {
          "internalType": "uint256",
          "name": "",
          "type": "uint256"
        }
      ],
      "stateMutability": "view",
      "type": "function"
    },
    {
      "inputs": [
        {
          "internalType": "address",
          "name": "owner",
          "type": "address"
        },
        {
          "internalType": "uint256",
          "name": "index",
          "type": "uint256"
        }
      ],
      "name": "tokenOfOwnerByIndex",
      "outputs": [
        {
          "internalType": "uint256",
          "name": "",
          "type": "uint256"
        }
      ],
      "stateMutability": "view",
      "type": "function"
    },
    {
      "inputs": [
        {
          "internalType": "uint256",
          "name": "_tokenId",
          "type": "uint256"
        }
      ],
      "name": "tokenURI",
      "outputs": [
        {
          "internalType": "string",
          "name": "",
          "type": "string"
        }
      ],
      "stateMutability": "view",
      "type": "function"
    },
    {
      "inputs": [
        {
          "internalType": "uint256",
          "name": "_tokenId",
          "type": "uint256"
        },
        {
          "internalType": "uint256",
          "name": "seed",
          "type": "uint256"
        }
      ],
      "name": "tokenURIForSeed",
      "outputs": [
        {
          "internalType": "string",
          "name": "",
          "type": "string"
        }
      ],
      "stateMutability": "view",
      "type": "function"
    },
    {
      "inputs": [],
      "name": "totalSupply",
      "outputs": [
        {
          "internalType": "uint256",
          "name": "",
          "type": "uint256"
        }
      ],
      "stateMutability": "view",
      "type": "function"
    },
    {
      "inputs": [
        {
          "internalType": "address",
          "name": "from",
          "type": "address"
        },
        {
          "internalType": "address",
          "name": "to",
          "type": "address"
        },
        {
          "internalType": "uint256",
          "name": "tokenId",
          "type": "uint256"
        }
      ],
      "name": "transferFrom",
      "outputs": [],
      "stateMutability": "nonpayable",
      "type": "function"
    },
    {
      "inputs": [
        {
          "internalType": "address",
          "name": "newOwner",
          "type": "address"
        }
      ],
      "name": "transferOwnership",
      "outputs": [],
      "stateMutability": "nonpayable",
      "type": "function"
    },
    {
      "inputs": [],
      "name": "withdraw",
      "outputs": [],
      "stateMutability": "nonpayable",
      "type": "function"
    },
    {
      "stateMutability": "payable",
      "type": "receive"
    }
  ],
  "bytecode": "0x60806040523480156200001157600080fd5b50604080518082018252600d81526c436861696e2052756e6e65727360981b602080830191825283518085019094526003845262292aa760e91b9084015281519192916200006291600091620000f6565b50805162000078906001906020840190620000f6565b505050620000956200008f620000a060201b60201c565b620000a4565b6001600b55620001e3565b3390565b600a80546001600160a01b038381166001600160a01b0319831681179093556040519116919082907f8be0079c531659141344cd1fd0a4f28419497f9722a3daafe3b4186f6b6457e090600090a35050565b82805462000104906200019c565b90600052602060002090601f01602090048101928262000128576000855562000173565b82601f106200014357805160ff191683800117855562000173565b8280016001018555821562000173579182015b828111156200017357825182559160200191906001019062000156565b506200018192915062000185565b5090565b5b8082111562000181576000815560010162000186565b600281046001821680620001b157607f821691505b60208210811415620001c757620001c7620001cd565b50919050565b634e487b7160e01b600052602260045260246000fd5b61357e80620001f36000396000f3fe6080604052600436106102e05760003560e01c80637dd0dbb511610184578063b88d4fde116100d6578063e670f7cd1161008a578063f252460111610064578063f25246011461080b578063f2fde38b14610841578063f42202e81461086157600080fd5b8063e670f7cd14610782578063e69c8a91146107a2578063e985e9c5146107c257600080fd5b8063c074f412116100bb578063c074f4121461072c578063c87b56dd1461074c578063d7822c991461076c57600080fd5b8063b88d4fde146106ec578063bb49ec7e1461070c57600080fd5b8063a08cdf6611610138578063a22cb46511610112578063a22cb4651461067c578063ac5fcdee1461069c578063b1acb346146106cc57600080fd5b8063a08cdf661461061c578063a13c038314610649578063a1e5995b1461066957600080fd5b80638da5cb5b116101695780638da5cb5b146105d357806395d89b41146105f1578063967676301461060657600080fd5b80637dd0dbb5146105935780637de46b69146105b357600080fd5b80633ccfd60b1161023d5780635a5e5d58116101f15780636e642aba116101cb5780636e642aba1461053e57806370a082311461055e578063715018a61461057e57600080fd5b80635a5e5d58146104dd5780636352211e146104fe5780636dcec5281461051e57600080fd5b806342842e0e1161022257806342842e0e1461047d5780634f6ccce71461049d578063511a9605146104bd57600080fd5b80633ccfd60b1461043b578063422627c31461045057600080fd5b806312b40a9f116102945780631a6949e3116102795780631a6949e3146103e657806323b872dd146103fb5780632f745c591461041b57600080fd5b806312b40a9f146103a857806318160ddd146103c857600080fd5b8063081812fc116102c5578063081812fc14610344578063095ea7b3146103715780630d0090ef1461039357600080fd5b806301ffc9a7146102ec57806306fdde031461032257600080fd5b366102e757005b600080fd5b3480156102f857600080fd5b5061030c61030736600461251d565b610881565b60405161031991906130a2565b60405180910390f35b34801561032e57600080fd5b506103376108dd565b60405161031991906130b0565b34801561035057600080fd5b5061036461035f3660046125c1565b61096f565b6040516103199190613050565b34801561037d57600080fd5b5061039161038c3660046124ba565b6109c8565b005b34801561039f57600080fd5b5061030c610a4e565b3480156103b457600080fd5b506103916103c3366004612376565b610a79565b3480156103d457600080fd5b506008545b60405161031991906132d1565b3480156103f257600080fd5b5061030c610ad2565b34801561040757600080fd5b506103916104163660046123cb565b610aea565b34801561042757600080fd5b506103d96104363660046124ba565b610b1b565b34801561044757600080fd5b50610391610b6d565b34801561045c57600080fd5b506103d961046b3660046125c1565b6000908152600c602052604090205490565b34801561048957600080fd5b506103916104983660046123cb565b610c02565b3480156104a957600080fd5b506103d96104b83660046125c1565b610c1d565b3480156104c957600080fd5b506103916104d83660046125c1565b610c79565b6104f06104eb3660046125c1565b610ca8565b604051610319929190613315565b34801561050a57600080fd5b506103646105193660046125c1565b610df2565b34801561052a57600080fd5b506103916105393660046124e8565b610e27565b34801561054a57600080fd5b506103d9610559366004612376565b610ecb565b34801561056a57600080fd5b506103d9610579366004612376565b610f17565b34801561058a57600080fd5b50610391610f5b565b34801561059f57600080fd5b506103916105ae3660046124ba565b610f91565b3480156105bf57600080fd5b506103916105ce3660046125c1565b610fff565b3480156105df57600080fd5b50600a546001600160a01b0316610364565b3480156105fd57600080fd5b5061033761102e565b34801561061257600080fd5b506103d960125481565b34801561062857600080fd5b506103d9610637366004612376565b60156020526000908152604090205481565b34801561065557600080fd5b506103916106643660046125de565b61103d565b6104f06106773660046125c1565b611092565b34801561068857600080fd5b5061039161069736600461248c565b611247565b3480156106a857600080fd5b5061030c6106b7366004612376565b60146020526000908152604090205460ff1681565b3480156106d857600080fd5b506103916106e73660046124e8565b611252565b3480156106f857600080fd5b50610391610707366004612416565b6112f2565b34801561071857600080fd5b50610391610727366004612557565b61132a565b34801561073857600080fd5b50600d54610364906001600160a01b031681565b34801561075857600080fd5b506103376107673660046125c1565b61140d565b34801561077857600080fd5b506103d960135481565b34801561078e57600080fd5b506103d961079d366004612557565b61151d565b3480156107ae57600080fd5b506103376107bd3660046125de565b61154e565b3480156107ce57600080fd5b5061030c6107dd366004612393565b6001600160a01b03918216600090815260056020908152604080832093909416825291909152205460ff1690565b34801561081757600080fd5b506103d9610826366004612376565b6001600160a01b031660009081526016602052604090205490565b34801561084d57600080fd5b5061039161085c366004612376565b611660565b34801561086d57600080fd5b506104f061087c3660046125c1565b6116b9565b60007fffffffff0000000000000000000000000000000000000000000000000000000082167f780e9d630000000000000000000000000000000000000000000000000000000014806108d757506108d782611820565b92915050565b6060600080546108ec9061342d565b80601f01602080910402602001604051908101604052809291908181526020018280546109189061342d565b80156109655780601f1061093a57610100808354040283529160200191610965565b820191906000526020600020905b81548152906001019060200180831161094857829003601f168201915b5050505050905090565b6000818152600260205260408120546001600160a01b03166109ac5760405162461bcd60e51b81526004016109a3906131e1565b60405180910390fd5b506000908152600460205260409020546001600160a01b031690565b60006109d382610df2565b9050806001600160a01b0316836001600160a01b03161415610a075760405162461bcd60e51b81526004016109a390613241565b336001600160a01b0382161480610a235750610a2381336107dd565b610a3f5760405162461bcd60e51b81526004016109a390613181565b610a498383611903565b505050565b6000610a58610ad2565b158015610a6757506012544210155b8015610a74575060125415155b905090565b600a546001600160a01b03163314610aa35760405162461bcd60e51b81526004016109a390613201565b600d805473ffffffffffffffffffffffffffffffffffffffff19166001600160a01b0392909216919091179055565b60006013544210158015610a74575050601354151590565b610af4338261197e565b610b105760405162461bcd60e51b81526004016109a390613261565b610a49838383611a30565b6000610b2683610f17565b8210610b445760405162461bcd60e51b81526004016109a3906130e1565b506001600160a01b03919091166000908152600660209081526040808320938352929052205490565b600a546001600160a01b03163314610b975760405162461bcd60e51b81526004016109a390613201565b604051600090339047908381818185875af1925050503d8060008114610bd9576040519150601f19603f3d011682016040523d82523d6000602084013e610bde565b606091505b5050905080610bff5760405162461bcd60e51b81526004016109a3906132a1565b50565b610a49838383604051806020016040528060008152506112f2565b6000610c2860085490565b8210610c465760405162461bcd60e51b81526004016109a390613271565b60088281548110610c6757634e487b7160e01b600052603260045260246000fd5b90600052602060002001549050919050565b600a546001600160a01b03163314610ca35760405162461bcd60e51b81526004016109a390613201565b601355565b6000806002600b541415610cce5760405162461bcd60e51b81526004016109a390613291565b6002600b55610cdb610ad2565b610cf75760405162461bcd60e51b81526004016109a390613281565b600083118015610d085750600a8311155b610d245760405162461bcd60e51b81526004016109a390613171565b610d3160556127106133cd565b83610d3b600e5490565b610d459190613396565b1115610d635760405162461bcd60e51b81526004016109a3906130d1565b34610d7566b1a2bc2ec50000856133ae565b14610d925760405162461bcd60e51b81526004016109a390613121565b6000610d9d600e5490565b610da8906001613396565b905060005b84811015610de657610dc3600e80546001019055565b610dd4610dcf600e5490565b611b6a565b80610dde8161348f565b915050610dad565b506001600b5593915050565b6000818152600260205260408120546001600160a01b0316806108d75760405162461bcd60e51b81526004016109a3906131b1565b600a546001600160a01b03163314610e515760405162461bcd60e51b81526004016109a390613201565b60005b8151811015610ec757600160146000848481518110610e8357634e487b7160e01b600052603260045260246000fd5b6020908102919091018101516001600160a01b03168252810191909152604001600020805460ff191691151591909117905580610ebf8161348f565b915050610e54565b5050565b6001600160a01b03811660009081526014602052604081205460ff16610ef357506000919050565b6001600160a01b0382166000908152601560205260409020546108d79060056133cd565b60006001600160a01b038216610f3f5760405162461bcd60e51b81526004016109a3906131a1565b506001600160a01b031660009081526003602052604090205490565b600a546001600160a01b03163314610f855760405162461bcd60e51b81526004016109a390613201565b610f8f6000611bc9565b565b600a546001600160a01b03163314610fbb5760405162461bcd60e51b81526004016109a390613201565b6002600b541415610fde5760405162461bcd60e51b81526004016109a390613291565b6001600160a01b039091166000908152601660205260409020556001600b55565b600a546001600160a01b031633146110295760405162461bcd60e51b81526004016109a390613201565b601255565b6060600180546108ec9061342d565b600a546001600160a01b031633146110675760405162461bcd60e51b81526004016109a390613201565b601054156110875760405162461bcd60e51b81526004016109a3906132c1565b601091909155601155565b6000806002600b5414156110b85760405162461bcd60e51b81526004016109a390613291565b6002600b556110c5610a4e565b6110e15760405162461bcd60e51b81526004016109a390613251565b826110fe5760405162461bcd60e51b81526004016109a390613171565b3360009081526014602052604090205460ff1661112d5760405162461bcd60e51b81526004016109a390613231565b61113a60556127106133cd565b83611144600e5490565b61114e9190613396565b111561116c5760405162461bcd60e51b81526004016109a3906130d1565b3461117e66b1a2bc2ec50000856133ae565b1461119b5760405162461bcd60e51b81526004016109a390613121565b336000908152601560205260408120546111b6908590613396565b905060058111156111d95760405162461bcd60e51b81526004016109a3906130c1565b60006111e4600e5490565b6111ef906001613396565b905060005b858110156112285761120a600e80546001019055565b611216610dcf600e5490565b806112208161348f565b9150506111f4565b50336000908152601560205260409020919091556001600b5593915050565b610ec7338383611c28565b600a546001600160a01b0316331461127c5760405162461bcd60e51b81526004016109a390613201565b60005b8151811015610ec7576000601460008484815181106112ae57634e487b7160e01b600052603260045260246000fd5b6020908102919091018101516001600160a01b03168252810191909152604001600020805460ff1916911515919091179055806112ea8161348f565b91505061127f565b6112fc338361197e565b6113185760405162461bcd60e51b81526004016109a390613261565b61132484848484611ccb565b50505050565b6010546113495760405162461bcd60e51b81526004016109a390613151565b6000805260026020527fac33ff75c19e70fe83507db0d683fd3465c996598dc972688b7ace676c89077b546001600160a01b03161561139a5760405162461bcd60e51b81526004016109a3906132b1565b6010546113a68261151d565b146113c35760405162461bcd60e51b81526004016109a3906131c1565b604080516020810190915260115481526113de336000611cfe565b60008052600c602052517f13649b2456f1b42fef0f0040b3aaeabcd21a76a0f3f5defd4f583839455116e85550565b6000818152600260205260409020546060906001600160a01b03166114445760405162461bcd60e51b81526004016109a390613221565b600d546001600160a01b031661146857505060408051602081019091526000815290565b600d546000838152600c60205260409081902090517fa62f8deb0000000000000000000000000000000000000000000000000000000081526001600160a01b0390921691829163a62f8deb916114c29187916004016132fa565b60006040518083038186803b1580156114da57600080fd5b505afa1580156114ee573d6000803e3d6000fd5b505050506040513d6000823e601f3d908101601f19168201604052611516919081019061258c565b9392505050565b6000816040516020016115309190613005565b60408051601f19818403018152919052805160209091012092915050565b6000828152600260205260409020546060906001600160a01b03166115855760405162461bcd60e51b81526004016109a390613221565b600d546001600160a01b03166115aa57506040805160208101909152600081526108d7565b60408051602081018252838152600d5491517fa62f8deb00000000000000000000000000000000000000000000000000000000815290916001600160a01b031690819063a62f8deb9061160390889086906004016132df565b60006040518083038186803b15801561161b57600080fd5b505afa15801561162f573d6000803e3d6000fd5b505050506040513d6000823e601f3d908101601f19168201604052611657919081019061258c565b95945050505050565b600a546001600160a01b0316331461168a5760405162461bcd60e51b81526004016109a390613201565b6001600160a01b0381166116b05760405162461bcd60e51b81526004016109a390613101565b610bff81611bc9565b6000806002600b5414156116df5760405162461bcd60e51b81526004016109a390613291565b6002600b5582158015906116f45750600a8311155b6117105760405162461bcd60e51b81526004016109a390613171565b60558361171c600f5490565b6117269190613396565b11156117445760405162461bcd60e51b81526004016109a3906131f1565b336000908152601660205260409020548311156117735760405162461bcd60e51b81526004016109a390613191565b600061177e600e5490565b61178b60556127106133cd565b6117959190613396565b6117a0906001613396565b905060005b848110156117f0576117bb600f80546001019055565b6117de6117c7600f5490565b6117d460556127106133cd565b610dcf9190613396565b806117e88161348f565b9150506117a5565b5033600090815260166020526040812080548692906118109084906133cd565b90915550506001600b5593915050565b60007fffffffff0000000000000000000000000000000000000000000000000000000082167f80ac58cd0000000000000000000000000000000000000000000000000000000014806118b357507fffffffff0000000000000000000000000000000000000000000000000000000082167f5b5e139f00000000000000000000000000000000000000000000000000000000145b806108d757507f01ffc9a7000000000000000000000000000000000000000000000000000000007fffffffff000000000000000000000000000000000000000000000000000000008316146108d7565b6000818152600460205260409020805473ffffffffffffffffffffffffffffffffffffffff19166001600160a01b038416908117909155819061194582610df2565b6001600160a01b03167f8c5be1e5ebec7d5bd14f71427d1e84f3dd0314c0f7b2291e5b200ac8c7c3b92560405160405180910390a45050565b6000818152600260205260408120546001600160a01b03166119b25760405162461bcd60e51b81526004016109a390613161565b60006119bd83610df2565b9050806001600160a01b0316846001600160a01b031614806119f85750836001600160a01b03166119ed8461096f565b6001600160a01b0316145b80611a2857506001600160a01b0380821660009081526005602090815260408083209388168352929052205460ff165b949350505050565b826001600160a01b0316611a4382610df2565b6001600160a01b031614611a695760405162461bcd60e51b81526004016109a390613211565b6001600160a01b038216611a8f5760405162461bcd60e51b81526004016109a390613131565b611a9a838383611d18565b611aa5600082611903565b6001600160a01b0383166000908152600360205260408120805460019290611ace9084906133cd565b90915550506001600160a01b0382166000908152600360205260408120805460019290611afc908490613396565b9091555050600081815260026020526040808220805473ffffffffffffffffffffffffffffffffffffffff19166001600160a01b0386811691821790925591518493918716917fddf252ad1be2c89b69c2b068fc378daa952ba7f163c4a11628f55a4df523b3ef91a4505050565b60408051602081019091526000815281334442604051602001611b909493929190613014565b60408051601f1981840301815291905280516020909101208152611bb43383611cfe565b6000918252600c602052604090912090519055565b600a80546001600160a01b0383811673ffffffffffffffffffffffffffffffffffffffff19831681179093556040519116919082907f8be0079c531659141344cd1fd0a4f28419497f9722a3daafe3b4186f6b6457e090600090a35050565b816001600160a01b0316836001600160a01b03161415611c5a5760405162461bcd60e51b81526004016109a390613141565b6001600160a01b0383811660008181526005602090815260408083209487168084529490915290819020805460ff1916851515179055517f17307eab39ab6107e8899845ad3d59bd9653f200f220920489ca2b5937696c3190611cbe9085906130a2565b60405180910390a3505050565b611cd6848484611a30565b611ce284848484611dd0565b6113245760405162461bcd60e51b81526004016109a3906130f1565b610ec7828260405180602001604052806000815250611f27565b6001600160a01b038316611d7357611d6e81600880546000838152600960205260408120829055600182018355919091527ff3f7a9fe364faab93b216da50a3214154f22a0a2b415b23a84c8169e8b636ee30155565b611d96565b816001600160a01b0316836001600160a01b031614611d9657611d968382611f5a565b6001600160a01b038216611dad57610a4981611ff7565b826001600160a01b0316826001600160a01b031614610a4957610a4982826120d0565b60006001600160a01b0384163b15611f1c576040517f150b7a020000000000000000000000000000000000000000000000000000000081526001600160a01b0385169063150b7a0290611e2d90339089908890889060040161305e565b602060405180830381600087803b158015611e4757600080fd5b505af1925050508015611e77575060408051601f3d908101601f19168201909252611e749181019061253a565b60015b611ed1573d808015611ea5576040519150601f19603f3d011682016040523d82523d6000602084013e611eaa565b606091505b508051611ec95760405162461bcd60e51b81526004016109a3906130f1565b805181602001fd5b7fffffffff00000000000000000000000000000000000000000000000000000000167f150b7a0200000000000000000000000000000000000000000000000000000000149050611a28565b506001949350505050565b611f318383612114565b611f3e6000848484611dd0565b610a495760405162461bcd60e51b81526004016109a3906130f1565b60006001611f6784610f17565b611f7191906133cd565b600083815260076020526040902054909150808214611fc4576001600160a01b03841660009081526006602090815260408083208584528252808320548484528184208190558352600790915290208190555b5060009182526007602090815260408084208490556001600160a01b039094168352600681528383209183525290812055565b600854600090612009906001906133cd565b6000838152600960205260408120546008805493945090928490811061203f57634e487b7160e01b600052603260045260246000fd5b90600052602060002001549050806008838154811061206e57634e487b7160e01b600052603260045260246000fd5b60009182526020808320909101929092558281526009909152604080822084905585825281205560088054806120b457634e487b7160e01b600052603160045260246000fd5b6001900381819060005260206000200160009055905550505050565b60006120db83610f17565b6001600160a01b039093166000908152600660209081526040808320868452825280832085905593825260079052919091209190915550565b6001600160a01b03821661213a5760405162461bcd60e51b81526004016109a3906131d1565b6000818152600260205260409020546001600160a01b03161561216f5760405162461bcd60e51b81526004016109a390613111565b61217b60008383611d18565b6001600160a01b03821660009081526003602052604081208054600192906121a4908490613396565b9091555050600081815260026020526040808220805473ffffffffffffffffffffffffffffffffffffffff19166001600160a01b03861690811790915590518392907fddf252ad1be2c89b69c2b068fc378daa952ba7f163c4a11628f55a4df523b3ef908290a45050565b600061222261221d84613347565b613330565b9050808382526020820190508285602086028501111561224157600080fd5b60005b8581101561226b5761225687836122df565b83526020928301929190910190600101612244565b5050509392505050565b600061228361221d8461336b565b90508281526020810184848401111561229b57600080fd5b6122a68482856133f5565b509392505050565b60006122bc61221d8461336b565b9050828152602081018484840111156122d457600080fd5b6122a6848285613401565b80356108d7816134fe565b600082601f8301126122fa578081fd5b8135611a2884826020860161220f565b80356108d781613512565b80356108d78161351a565b80516108d78161351a565b600082601f83011261233b578081fd5b8135611a28848260208601612275565b600082601f83011261235b578081fd5b8151611a288482602086016122ae565b80356108d781613542565b600060208284031215612387578081fd5b611516838284016122df565b600080604083850312156123a5578081fd5b6123b1848285016122df565b915060206123c1858286016122df565b9150509250929050565b6000806000606084860312156123df578081fd5b6123eb858286016122df565b925060206123fb868287016122df565b925050604061240c8682870161236b565b9150509250925092565b6000806000806080858703121561242b578081fd5b612437868287016122df565b93506020612447878288016122df565b93505060406124588782880161236b565b925050606085013567ffffffffffffffff811115612474578182fd5b6124808782880161232b565b91505092959194509250565b6000806040838503121561249e578182fd5b6124aa848385016122df565b915060206123c18582860161230a565b600080604083850312156124cc578182fd5b6124d8848385016122df565b915060206123c18582860161236b565b6000602082840312156124f9578081fd5b8082013567ffffffffffffffff811115612511578182fd5b611a28848285016122ea565b60006020828403121561252e578081fd5b61151683828401612315565b60006020828403121561254b578081fd5b61151683828401612320565b600060208284031215612568578081fd5b8082013567ffffffffffffffff811115612580578182fd5b611a288482850161232b565b60006020828403121561259d578081fd5b8082015167ffffffffffffffff8111156125b5578182fd5b611a288482850161234b565b6000602082840312156125d2578081fd5b6115168382840161236b565b600080604083850312156125f0578182fd5b6124d88483850161236b565b612605816133e4565b82525050565b612605612617826133e4565b6134aa565b801515612605565b600061262e825190565b808452602084019350612645818560208601613401565b601f01601f19169290920192915050565b6000612660825190565b61266e818560208601613401565b9290920192915050565b602b8152602081017f4d6178204561726c792041636365737320636f756e742070657220616464726581527f7373206578636565646564000000000000000000000000000000000000000000602082015290505b60400190565b601c8152602081017f416c6c2052756e6e6572732068617665206265656e206d696e74656400000000815290505b60200190565b602b8152602081017f455243373231456e756d657261626c653a206f776e657220696e646578206f7581527f74206f6620626f756e6473000000000000000000000000000000000000000000602082015290506126cc565b60328152602081017f4552433732313a207472616e7366657220746f206e6f6e20455243373231526581527f63656976657220696d706c656d656e7465720000000000000000000000000000602082015290506126cc565b60268152602081017f4f776e61626c653a206e6577206f776e657220697320746865207a65726f206181527f6464726573730000000000000000000000000000000000000000000000000000602082015290506126cc565b601c8152602081017f4552433732313a20746f6b656e20616c7265616479206d696e7465640000000081529050612700565b601e8152602081017f496e636f727265637420616d6f756e74206f662065746865722073656e74000081529050612700565b60248152602081017f4552433732313a207472616e7366657220746f20746865207a65726f2061646481527f7265737300000000000000000000000000000000000000000000000000000000602082015290506126cc565b60198152602081017f4552433732313a20617070726f766520746f2063616c6c65720000000000000081529050612700565b60238152602081017f52756e6e6572205a65726f20686173206e6f74206265656e20636f6e6669677581527f7265640000000000000000000000000000000000000000000000000000000000602082015290506126cc565b602c8152602081017f4552433732313a206f70657261746f7220717565727920666f72206e6f6e657881527f697374656e7420746f6b656e0000000000000000000000000000000000000000602082015290506126cc565b60148152602081017f496e76616c69642052756e6e657220636f756e7400000000000000000000000081529050612700565b60388152602081017f4552433732313a20617070726f76652063616c6c6572206973206e6f74206f7781527f6e6572206e6f7220617070726f76656420666f7220616c6c0000000000000000602082015290506126cc565b602a8152602081017f596f752063616e6e6f74206d696e742074686973206d616e792072657365727681527f65642052756e6e65727300000000000000000000000000000000000000000000602082015290506126cc565b602a8152602081017f4552433732313a2062616c616e636520717565727920666f7220746865207a6581527f726f206164647265737300000000000000000000000000000000000000000000602082015290506126cc565b60298152602081017f4552433732313a206f776e657220717565727920666f72206e6f6e657869737481527f656e7420746f6b656e0000000000000000000000000000000000000000000000602082015290506126cc565b600e8152602081017f496e636f7272656374207365656400000000000000000000000000000000000081529050612700565b60208082527f4552433732313a206d696e7420746f20746865207a65726f20616464726573739101908152612700565b602c8152602081017f4552433732313a20617070726f76656420717565727920666f72206e6f6e657881527f697374656e7420746f6b656e0000000000000000000000000000000000000000602082015290506126cc565b60258152602081017f416c6c2072657365727665642052756e6e6572732068617665206265656e206d81527f696e746564000000000000000000000000000000000000000000000000000000602082015290506126cc565b60208082527f4f776e61626c653a2063616c6c6572206973206e6f7420746865206f776e65729101908152612700565b60298152602081017f4552433732313a207472616e73666572206f6620746f6b656e2074686174206981527f73206e6f74206f776e0000000000000000000000000000000000000000000000602082015290506126cc565b602f8152602081017f4552433732314d657461646174613a2055524920717565727920666f72206e6f81527f6e6578697374656e7420746f6b656e0000000000000000000000000000000000602082015290506126cc565b60208082527f41646472657373206e6f74206f6e204561726c7920416363657373206c6973749101908152612700565b60218152602081017f4552433732313a20617070726f76616c20746f2063757272656e74206f776e6581527f7200000000000000000000000000000000000000000000000000000000000000602082015290506126cc565b60158152602081017f4561726c7920616363657373206e6f74206f70656e000000000000000000000081529050612700565b60318152602081017f4552433732313a207472616e736665722063616c6c6572206973206e6f74206f81527f776e6572206e6f7220617070726f766564000000000000000000000000000000602082015290506126cc565b602c8152602081017f455243373231456e756d657261626c653a20676c6f62616c20696e646578206f81527f7574206f6620626f756e64730000000000000000000000000000000000000000602082015290506126cc565b60148152602081017f5075626c69632073616c65206e6f74206f70656e00000000000000000000000081529050612700565b601f8152602081017f5265656e7472616e637947756172643a207265656e7472616e742063616c6c0081529050612700565b60118152602081017f5769746864726177616c206661696c656400000000000000000000000000000081529050612700565b60238152602081017f52756e6e6572205a65726f2068617320616c7265616479206265656e206d696e81527f7465640000000000000000000000000000000000000000000000000000000000602082015290506126cc565b60278152602081017f52756e6e6572205a65726f2068617320616c7265616479206265656e20636f6e81527f6669677572656400000000000000000000000000000000000000000000000000602082015290506126cc565b8051610a498382612fff565b8054612ff78161345a565b9050610a4983825b80612605565b6108d78183612656565b919050565b61301e8186612fff565b60200161302b818561260b565b6014016130388184612fff565b6020016130458183612fff565b602001949350505050565b602081016108d782846125fc565b6080810161306c82876125fc565b61307960208301866125fc565b6130866040830185612fff565b81810360608301526130988184612624565b9695505050505050565b602081016108d7828461261c565b602080825281016115168184612624565b602080825281016108d781612678565b602080825281016108d7816126d2565b602080825281016108d781612706565b602080825281016108d78161275e565b602080825281016108d7816127b6565b602080825281016108d78161280e565b602080825281016108d781612840565b602080825281016108d781612872565b602080825281016108d7816128ca565b602080825281016108d7816128fc565b602080825281016108d781612954565b602080825281016108d7816129ac565b602080825281016108d7816129de565b602080825281016108d781612a36565b602080825281016108d781612a8e565b602080825281016108d781612ae6565b602080825281016108d781612b3e565b602080825281016108d781612b70565b602080825281016108d781612ba0565b602080825281016108d781612bf8565b602080825281016108d781612c50565b602080825281016108d781612c80565b602080825281016108d781612cd8565b602080825281016108d781612d30565b602080825281016108d781612d60565b602080825281016108d781612db8565b602080825281016108d781612dea565b602080825281016108d781612e42565b602080825281016108d781612e9a565b602080825281016108d781612ecc565b602080825281016108d781612efe565b602080825281016108d781612f30565b602080825281016108d781612f88565b602081016108d78284612fff565b604081016132ed8285612fff565b6115166020830184612fe0565b604081016133088285612fff565b6115166020830184612fec565b604081016133238285612fff565b6115166020830184612fff565b600061333b60405190565b905061300f8282613462565b600067ffffffffffffffff821115613361576133616134e8565b5060209081020190565b600067ffffffffffffffff821115613385576133856134e8565b601f19601f83011660200192915050565b600082198211156133a9576133a96134bc565b500190565b60008160001904831182151516156133c8576133c86134bc565b500290565b6000828210156133df576133df6134bc565b500390565b60006001600160a01b0382166108d7565b82818337506000910152565b60005b8381101561341c578181015183820152602001613404565b838111156113245750506000910152565b60028104600182168061344157607f821691505b60208210811415613454576134546134d2565b50919050565b6000816108d7565b601f19601f830116810181811067ffffffffffffffff82111715613488576134886134e8565b6040525050565b60006000198214156134a3576134a36134bc565b5060010190565b60006108d78260006108d78260601b90565b634e487b7160e01b600052601160045260246000fd5b634e487b7160e01b600052602260045260246000fd5b634e487b7160e01b600052604160045260246000fd5b613507816133e4565b8114610bff57600080fd5b801515613507565b7fffffffff000000000000000000000000000000000000000000000000000000008116613507565b8061350756fea26469706673582212207572f54e01e8b2fc6f48244a37eeef41d9b213a9f14c0e0cd6e769fca19e9f9364736f6c63430008040033",
  "linkReferences": {},
  "deployedLinkReferences": {}
}